:020000040800F2
:10000000000002203D2E0008592C00085F2C00083B
:10001000652C00086B2C0008712C00080000000003
:10002000000000000000000000000000772C000825
:10003000852C000800000000932C0008A12C00086B
:100040008D2E00088D2E00088D2E00088D2E0008A4
:100050008D2E00088D2E00088D2E00088D2E000894
:100060008D2E00088D2E00088D2E00088D2E000884
:100070008D2E00088D2E00088D2E00088D2E000874
:100080008D2E00088D2E00088D2E00080000000027
:100090000000000000000000000000008D2E00089D
:1000A0008D2E00088D2E00088D2E00088D2E000844
:1000B0008D2E00088D2E00088D2E00088D2E000834
:1000C0008D2E00088D2E00088D2E00088D2E000824
:1000D0008D2E00088D2E0008B12C000800000000B5
:1000E0008D2E00088D2E00088D2E000800000000C7
:1000F0000000000000000000000000008D2E00083D
:10010000000000008D2E00088D2E00088D2E0008A6
:1001100000000000000000000000000000000000DF
:100120008D2E00088D2E00088D2E00088D2E0008C3
:100130008D2E0008000000000000000000000000FC
:100140000000000000000000000000008D2E0008EC
:100150008D2E00088D2E00088D2E00088D2E000893
:100160008D2E00088D2E0008000000000000000009
:10017000000000000000000000000000000000007F
:10018000000000008D2E00080000000000000000AC
:080190008D2E00088D2E0008E1
:1001A00010B5054C237833B9044B13B10448AFF3B1
:1001B00000800123237010BDDC010020000000003E
:1001C000B883000808B5034B1BB103490348AFF3DC
:1001D000008008BD00000000E0010020B883000896
:1001E000034613F8012B002AFBD1181A0138704777
:1001F00001F0FF01102A2BDB10F0070F08D010F8D8
:10020000013B013A8B422DD010F0070F42B3F6D1DB
:10021000F0B441EA012141EA014122F007047FF0F4
:1002200000070023F0E80256083C85EA010586EA4B
:10023000010685FA47F5A3FA87F586FA47F6A5FA87
:1002400087F68EB9EED1F0BC01F0FF0102F0070293
:1002500032B110F8013B013A83EA010313B1F8D13E
:100260000020704701387047002D06BF354603381F
:10027000073815F0010F07D1013015F4807F02BF58
:10028000013015F4C03F0130F0BC0138704700BFA9
:1002900081F0004102E000BF83F0004330B54FEA37
:1002A00041044FEA430594EA050F08BF90EA020FA4
:1002B0001FBF54EA000C55EA020C7FEA645C7FEA37
:1002C000655C00F0E2804FEA5454D4EB5555B8BF5A
:1002D0006D420CDD2C4480EA020281EA030382EACB
:1002E000000083EA010180EA020281EA0303362D5D
:1002F00088BF30BD11F0004F4FEA01314FF4801C30
:100300004CEA113102D0404261EB410113F0004F41
:100310004FEA03334CEA133302D0524263EB4303F8
:1003200094EA050F00F0A780A4F10104D5F1200E96
:100330000DDB02FA0EFC22FA05F2801841F10001F1
:1003400003FA0EF2801843FA05F359410EE0A5F1C5
:1003500020050EF1200E012A03FA0EFC28BF4CF0F6
:10036000020C43FA05F3C01851EBE37101F00045AC
:1003700007D54FF0000EDCF1000C7EEB00006EEBB9
:100380000101B1F5801F1BD3B1F5001F0CD3490843
:100390005FEA30004FEA3C0C04F101044FEA44529A
:1003A00012F5800F80F09A80BCF1004F08BF5FEA21
:1003B000500C50F1000041EB045141EA050130BD01
:1003C0005FEA4C0C404141EB0101013C28BFB1F513
:1003D000801FE9D291F0000F04BF01460020B1FA5E
:1003E00081F308BF2033A3F10B03B3F120020CDA31
:1003F0000C3208DD02F1140CC2F10C0201FA0CF00F
:1004000021FA02F10CE002F11402D8BFC2F1200C73
:1004100001FA02F120FA0CFCDCBF41EA0C01904029
:10042000E41AA2BF01EB0451294330BD6FEA040472
:100430001F3C1CDA0C340EDC04F11404C4F120025D
:1004400020FA04F001FA02F340EA030021FA04F36F
:1004500045EA030130BDC4F10C04C4F1200220FAC6
:1004600002F001FA04F340EA0300294630BD21FA04
:1004700004F0294630BD94F0000F83F4801306BFCA
:1004800081F480110134013D4EE77FEA645C18BFBE
:100490007FEA655C29D094EA050F08BF90EA020F55
:1004A00005D054EA000C04BF1946104630BD91EA4D
:1004B000030F1EBF0021002030BD5FEA545C05D150
:1004C0004000494128BF41F0004130BD14F580048F
:1004D0003CBF01F5801130BD01F0004545F0FE4103
:1004E00041F470014FF0000030BD7FEA645C1ABF38
:1004F000194610467FEA655C1CBF0B46024650EA6F
:10050000013406BF52EA033591EA030F41F400219A
:1005100030BD00BF90F0000F04BF0021704730B520
:100520004FF4806404F132044FF000054FF00001F5
:1005300050E700BF90F0000F04BF0021704730B5B6
:100540004FF4806404F1320410F0004548BF40428B
:100550004FF000013EE700BF42004FEAE2014FEAE0
:1005600031014FEA02701FBF12F07F4393F07F4FBB
:1005700081F06051704732F07F4208BF704793F0BE
:100580007F4F04BF41F40021704730B54FF46074D1
:1005900001F0004521F000411CE700BF50EA0102D4
:1005A00008BF704730B54FF000050AE050EA01027D
:1005B00008BF704730B511F0004502D5404261EBED
:1005C00041014FF4806404F132045FEA915C3FF42E
:1005D000D8AE4FF003025FEADC0C18BF03325FEACB
:1005E000DC0C18BF033202EBDC02C2F1200300FA7C
:1005F00003FC20FA02F001FA03FE40EA0E0021FAA1
:1006000002F11444BDE600BF70B54FF0FF0C4CF48E
:10061000E06C1CEA11541DBF1CEA135594EA0C0F40
:1006200095EA0C0F00F0DEF82C4481EA030621EA7B
:100630004C5123EA4C5350EA013518BF52EA0335B6
:1006400041F4801143F4801338D0A0FB02CE4FF068
:100650000005E1FB02E506F00042E0FB03E54FF098
:100660000006E1FB03569CF0000F18BF4EF0010E90
:10067000A4F1FF04B6F5007F64F5407404D25FEA8C
:100680004E0E6D4146EB060642EAC62141EA55513F
:100690004FEAC52040EA5E504FEACE2EB4F1FD0C81
:1006A00088BFBCF5E06F1ED8BEF1004F08BF5FEAFF
:1006B000500E50F1000041EB045170BD06F00046B1
:1006C00046EA010140EA020081EA0301B4EB5C045E
:1006D000C2BFD4EB0C0541EA045170BD41F4801156
:1006E0004FF0000E013C00F3AB8014F1360FDEBF7B
:1006F000002001F0004170BDC4F10004203C35DA57
:100700000C341BDC04F11404C4F1200500FA05F3D9
:1007100020FA04F001FA05F240EA020001F000427A
:1007200021F0004110EBD37021FA04F642EB0601F0
:100730005EEA430E08BF20EAD37070BDC4F10C041A
:10074000C4F1200500FA04F320FA05F001FA04F2DE
:1007500040EA020001F0004110EBD37041F10001CA
:100760005EEA430E08BF20EAD37070BDC4F12005D5
:1007700000FA05F24EEA020E20FA04F301FA05F23D
:1007800043EA020321FA04F001F0004121FA04F2E5
:1007900020EA020000EBD3705EEA430E08BF20EAB5
:1007A000D37070BD94F0000F0FD101F000464000EF
:1007B00041EB010111F4801F08BF013CF7D041EA71
:1007C000060195F0000F18BF704703F00046520075
:1007D00043EB030313F4801F08BF013DF7D043EA46
:1007E0000603704794EA0C0F0CEA135518BF95EAFC
:1007F0000C0F0CD050EA410618BF52EA4306D1D183
:1008000081EA030101F000414FF0000070BD50EAA1
:10081000410606BF1046194652EA430619D094EA2B
:100820000C0F02D150EA013613D195EA0C0F05D115
:1008300052EA03361CBF104619460AD181EA030169
:1008400001F0004141F0FE4141F470014FF0000021
:1008500070BD41F0FE4141F4780170BD70B54FF0BC
:10086000FF0C4CF4E06C1CEA11541DBF1CEA13553C
:1008700094EA0C0F95EA0C0F00F0A7F8A4EB05041E
:1008800081EA030E52EA03354FEA013100F0888015
:100890004FEA03334FF0805545EA131343EA1263DE
:1008A0004FEA022245EA111545EA10654FEA002693
:1008B0000EF000419D4208BF964244F1FD0404F54C
:1008C000407402D25B084FEA3202B61A65EB0305A8
:1008D0005B084FEA32024FF480104FF4002CB6EB65
:1008E000020E75EB030E22BFB61A754640EA0C00E5
:1008F0005B084FEA3202B6EB020E75EB030E22BF25
:10090000B61A754640EA5C005B084FEA3202B6EB65
:10091000020E75EB030E22BFB61A754640EA9C0024
:100920005B084FEA3202B6EB020E75EB030E22BFF4
:10093000B61A754640EADC0055EA060E18D04FEAB2
:10094000051545EA16754FEA06164FEAC30343EA52
:1009500052734FEAC2025FEA1C1CC0D111F4801F1F
:100960000BD141EA00014FF000004FF0004CB6E718
:1009700011F4801F04BF01430020B4F1FD0C88BFB7
:10098000BCF5E06F3FF6AFAEB5EB030C04BFB6EBC2
:10099000020C5FEA500C50F1000041EB045170BDB5
:1009A0000EF0004E4EEA113114EB5C04C2BFD4EBE2
:1009B0000C0541EA045170BD41F480114FF0000E66
:1009C000013C90E645EA060E8DE60CEA135594EAE2
:1009D0000C0F08BF95EA0C0F3FF43BAF94EA0C0FE5
:1009E0000AD150EA01347FF434AF95EA0C0F7FF45A
:1009F00025AF104619462CE795EA0C0F06D152EAAE
:100A000003353FF4FDAE1046194622E750EA410691
:100A100018BF52EA43067FF4C5AE50EA41047FF4A2
:100A20000DAF52EA43057FF4EBAE12E74FF0FF3C07
:100A300006E000BF4FF0010C02E000BF4FF0010CD8
:100A40004DF804CD4FEA410C7FEA6C5C4FEA430C51
:100A500018BF7FEA6C5C1BD001B050EA410C0CBFA0
:100A600052EA430C91EA030F02BF90EA020F002002
:100A7000704710F1000F91EA030F58BF994208BF69
:100A800090422CBFD8176FEAE37040F00100704726
:100A90004FEA410C7FEA6C5C02D150EA013C07D17D
:100AA0004FEA430C7FEA6C5CD6D152EA033CD3D0C8
:100AB0005DF8040B704700BF8446104662468C46C2
:100AC0001946634600E000BF01B5FFF7B7FF0028F5
:100AD00048BF10F1000F01BD4DF808EDFFF7F4FF1E
:100AE0000CBF012000205DF808FB00BF4DF808EDA9
:100AF000FFF7EAFF34BF012000205DF808FB00BFCC
:100B00004DF808EDFFF7E0FF94BF012000205DF8ED
:100B100008FB00BF4DF808EDFFF7CEFF94BF0120A2
:100B200000205DF808FB00BF4DF808EDFFF7C4FF9B
:100B300034BF012000205DF808FB00BF4FEA410CE4
:100B40007FEA6C5C02D150EA013C0AD14FEA430CC7
:100B50007FEA6C5C02D152EA033C02D14FF0000004
:100B600070474FF0010070474FEA410212F5001242
:100B700015D211D56FF47873B3EB625212D94FEAE4
:100B8000C12343F0004343EA505311F0004F23FACE
:100B900002F018BF404270474FF00000704750EA23
:100BA000013005D111F0004008BF6FF000407047E0
:100BB0004FF00000704700BF53B94AB9002908BF81
:100BC00000281CBF4FF0FF314FF0FF3000F074B928
:100BD000ADF1080C6DE904CE00F006F8DDF804E094
:100BE000DDE9022304B070472DE9F047089D044673
:100BF0008E46002B4DD18A42944669D9B2FA82F2D0
:100C000052B101FA02F3C2F1200120FA01F10CFA0B
:100C100002FC41EA030E94404FEA1C48210CBEFB43
:100C2000F8F61FFA8CF708FB16E341EA034306FBCC
:100C300007F199420AD91CEB030306F1FF3080F05B
:100C40001F81994240F21C81023E63445B1AA4B2A8
:100C5000B3FBF8F008FB103344EA034400FB07F74A
:100C6000A7420AD91CEB040400F1FF3380F00A818B
:100C7000A74240F207816444023840EA0640E41B80
:100C800000261DB1D4400023C5E900433146BDE82C
:100C9000F0878B4209D9002D00F0EF800026C5E9CE
:100CA000000130463146BDE8F087B3FA83F6002EE6
:100CB0004AD18B4202D3824200F2F980841A61EB5E
:100CC000030301209E46002DE0D0C5E9004EDDE77C
:100CD00002B9FFDEB2FA82F2002A40F09280A1EB64
:100CE0000C014FEA1C471FFA8CFE0126200CB1FBB9
:100CF000F7F307FB131140EA01410EFB03F08842B2
:100D000008D91CEB010103F1FF3802D2884200F23E
:100D1000CB804346091AA4B2B1FBF7F007FB1011D0
:100D200044EA01440EFB00FEA64508D91CEB04046E
:100D300000F1FF3102D2A64500F2BB800846A4EBC9
:100D40000E0440EA03409CE7C6F12007B34022FAB4
:100D500007FC4CEA030C20FA07F401FA06F31C43E3
:100D6000F9404FEA1C4900FA06F3B1FBF9F8200CF0
:100D70001FFA8CFE09FB181140EA014108FB0EF036
:100D8000884202FA06F20BD91CEB010108F1FF3A86
:100D900080F08880884240F28580A8F10208614492
:100DA000091AA4B2B1FBF9F009FB101144EA0141A0
:100DB00000FB0EFE8E4508D91CEB010100F1FF344B
:100DC0006CD28E456AD90238614440EA0840A0FBE3
:100DD0000294A1EB0E01A142C846A64656D353D0B9
:100DE0005DB1B3EB080261EB0E0101FA07F722FADD
:100DF00006F3F1401F43C5E9007100263146BDE806
:100E0000F087C2F12003D8400CFA02FC21FA03F368
:100E1000914001434FEA1C471FFA8CFEB3FBF7F0E9
:100E200007FB10360B0C43EA064300FB0EF69E420E
:100E300004FA02F408D91CEB030300F1FF382FD2A7
:100E40009E422DD9023863449B1B89B2B3FBF7F64F
:100E500007FB163341EA034106FB0EF38B4208D928
:100E60001CEB010106F1FF3816D28B4214D9023E69
:100E70006144C91A46EA004638E72E46284605E787
:100E80000646E3E61846F8E64B45A9D2B9EB020858
:100E900064EB0C0E0138A3E74646EAE7204694E7E8
:100EA0004046D1E7D0467BE7023B614432E730461B
:100EB00009E76444023842E7704700BF80B582B05A
:100EC00000AF78607B68002B05D1194B194A2621A9
:100ED000194804F09DFC7B681B7C002B0BD07B68C1
:100EE0009B6801337A68D268B3FBF2F101FB02F22E
:100EF0009A1A7B689A607B685B6801337A68D2686B
:100F0000B3FBF2F101FB02F29A1A7B685A607B682C
:100F10005A687B689B689A420CBF01230023DBB2AE
:100F20001A467B681A7400BF0837BD4680BD00BFF3
:100F3000D08300081C890008D883000880B582B0DF
:100F400000AF78607B68002B05D10C4B0C4A39212F
:100F50000C4804F05DFC7B6800221A747B689B6877
:100F600001337A68D268B3FBF2F101FB02F29A1AFC
:100F70007B689A6000BF0837BD4680BDD0830008FB
:100F800030890008D883000880B582B000AF78604F
:100F90007B68002B05D10C4B0C4A4E210C4804F009
:100FA00037FC7B681B7C002B07D17B689A687B68C9
:100FB0005B689A4201D1012300E00023DBB21846AE
:100FC0000837BD4680BD00BFD083000844890008B3
:100FD000D883000880B584B000AF786039607B6842
:100FE000002B02D03B68002B05D1174B174A692113
:100FF000174804F00DFC142004F064FC0346FB6069
:10100000FB68002B05D1134B104A6C21104804F0EB
:10101000FFFBFB687A681A60FB683A68DA60F86878
:1010200000F01CF8F868FFF7AFFF0346002B05D16E
:10103000094B064A7221064804F0EAFBFB68184691
:101040001037BD4680BD00BFFC83000858890008EA
:10105000D8830008D08300080C84000880B582B0D3
:1010600000AF78607B68002B05D1094B094A8921C4
:10107000094804F0CDFB7B6800225A607B6800229F
:101080009A607B6800221A7400BF0837BD4680BD95
:10109000D08300086C890008D883000880B584B02C
:1010A00000AF78607B68002B05D1144B144A972160
:1010B000144804F0ADFB7B68DB68FB607B681B7C3D
:1010C000002B15D17B685A687B689B689A4206D3CF
:1010D0007B685A687B689B68D31AFB6008E07B6872
:1010E000DA687B685B681A447B689B68D31AFB608C
:1010F000FB6818461037BD4680BD00BFD08300088E
:1011000080890008D883000890B583B000AF78606C
:101110007B68002B05D1084B084ABE21084804F023
:1011200077FB7B68DC687868FFF7B8FF0346E31A53
:1011300018460C37BD4690BDD08300089C89000836
:10114000D883000880B582B000AF78600B46FB7092
:101150007B68002B03D07B681B68002B05D10A4BF2
:101160000A4ACA210A4804F053FB7B681A687B6864
:101170005B681344FA781A707868FFF79FFE00BF27
:101180000837BD4680BD00BF28840008BC89000820
:10119000D883000880B584B000AF786039607B6880
:1011A000002B06D03B68002B03D07B681B68002B0C
:1011B00005D1104B104ADA21104804F029FB002316
:1011C000FB607868FFF7E0FE0346002B0CD17B68DC
:1011D0001A687B689B6813441A783B681A707868B1
:1011E000FFF7ACFE0123FB60FB68DBB2184610374B
:1011F000BD4680BD44840008D0890008D88300081B
:1012000080B586B000AFF860B9601346FB71FB682B
:10121000002B03D0FB681B68002B05D1154B164A29
:10122000F321164804F0F4FAFB681B7C002B01D074
:1012300001231AE0F868FFF767FF0246FB799A423C
:1012400001D2022311E000237B6109E07B695A1C73
:101250007A61BA6813441B781946F868FFF772FF81
:10126000FB797A699A42F1D3002318461837BD46B4
:1012700080BD00BF28840008E4890008D8830008E6
:1012800080B586B000AFF860B9607A60FB68002B6B
:1012900006D0FB681B68002B02D0BB68002B06D170
:1012A000104B114A40F21511104804F0B1FA002316
:1012B0007B610DE07B695A1C7A61BA681344194658
:1012C000F868FFF767FF0346002B01D1002304E015
:1012D0007A697B689A42EDD3012318461837BD46D8
:1012E00080BD00BF68840008F8890008D883000822
:1012F00080B483B000AF78604FF06043D3F8803E95
:1013000003F00103002B13D04FF06043D3F8003EED
:1013100003F00103002B0BD000E000BF4FF060434F
:101320001B68002BF9D04FF060437A68D2B21A7074
:101330007B6818460C37BD465DF8047B704700009B
:1013400080B400AF0A4B1B68094A43F080731360F6
:101350004FF06043D3F8003E4FF0604243F001038A
:10136000C2F8003E00BFBD465DF8047B704700BF79
:10137000FCED00E080B586B000AFF860B9607A603F
:1013800000237B6109E0BB685A1CBA601B781846D1
:10139000FFF7AEFF7B6901337B617A697B689A4214
:1013A000F1DB7B6818461837BD4680BD80B582B03A
:1013B00000AF786039607B68002B05D1094B0A4A81
:1013C00011210A4804F024FA7B683A681A607B68A5
:1013D00001221A717B6800225A7100BF0837BD468E
:1013E00080BD00BF8C8400080C8A00089884000827
:1013F00080B582B000AF78607B68002B05D1094BC7
:10140000094A1921094804F003FA7B6800221A717D
:101410007B6800225A717B6800221A6000BF08377F
:10142000BD4680BD8C840008208A0008988400088E
:1014300080B483B000AF78607B681B79002B0CD040
:101440007B681B68002B05D07B681B685A1E7B6875
:101450001A6002E07B6801225A71012318460C379A
:10146000BD465DF8047B704780B483B000AF786000
:101470007B685B7918460C37BD465DF8047B704786
:1014800080B500AF054800F070FE054800F002FC92
:10149000044800F0BCFF00BF80BD00BFD0070020A3
:1014A000AC060020F40C002080B500AF114B124AAE
:1014B0001A60104B4FF4E1325A600E4B00229A60D2
:1014C0000C4B0022DA600B4B00221A61094B0C22F4
:1014D0005A61084B00229A61064B0022DA610548E6
:1014E00003F0E8F90346002B01D001F0F7F900BF43
:1014F00080BD00BFF80100200044004080B500AF6F
:10150000FFF7D2FF4FF400710B48FFF763FD03466E
:101510000A4AC2F808344FF400710848FFF75AFD30
:101520000346064AC2F8003201220549054803F085
:1015300053FA0123184680BD440400203C020020D9
:1015400040040020F801002080B500AF044BD3F820
:1015500000321846FFF7A2FD0346DBB2184680BDF5
:101560003C02002080B582B000AF78600B46FB7073
:10157000064BD3F80032FA7879681846FFF780FEF8
:10158000034618460837BD4680BD00BF3C02002018
:1015900080B500AF044BD3F800321846FFF75EFD6C
:1015A0000123184680BD00BF3C02002080B584B0F6
:1015B00000AF78600B46FB70134BD3F80834FA7811
:1015C00079681846FFF71CFE0346002B17D10F4B16
:1015D00093F83D30DBB2202B0FD10B4BD3F80834FE
:1015E00007F10F0211461846FFF7D4FD07F10F036C
:1015F00001221946054803F0AAF9012300E000235F
:1016000018461037BD4680BD3C020020F80100207E
:1016100080B584B000AF78607B681B68124A934243
:101620001DD1124BD3F808341846FFF737FD034697
:10163000FB81FB89002B12D0FB89632B28BF63231E
:10164000FB810A4BD3F80834FA8909491846FFF799
:1016500017FEFB891A460649064803F078F900BFD1
:101660001037BD4680BD00BF004400403C02002052
:1016700048060020F801002080B582B000AF7860F5
:101680007B681B680E4A934215D101220D490E4812
:1016900003F0A2F90D4BD3F8003201220949184694
:1016A000FFF7AEFD0346002B05D0084BD3F8003200
:1016B0001846FFF7D3FC00BF0837BD4680BD00BF0A
:1016C0000044004040040020F80100203C020020BB
:1016D00080B582B000AF7860786800F019F800BF7C
:1016E0000837BD4680BD80B483B000AF78600B463C
:1016F000FB707B68FA781A707B6800221A717B682D
:1017000000225A7100BF0C37BD465DF8047B70475C
:1017100080B582B000AF786001217868FFF7E3FF01
:1017200000BF0837BD4680BD80B584B000AF78608B
:10173000FFF70AFF0346032B38D907F10F030121F6
:101740001846FFF70FFF1C4B1A78FB7B9A4201D01B
:1017500000232CE007F10F0301211846FFF702FFD9
:10176000154B5A78FB7B9A4201D000231FE007F10A
:101770000F0301211846FFF7F5FE0F4B9A78FB7B0C
:101780009A4201D0002312E007F10F03012118460D
:10179000FFF7E8FE084BDA78FB7B9A4201D0002382
:1017A00005E07B6801221A71012300E0002318463E
:1017B0001037BD4680BD00BF308A000880B584B0B8
:1017C00000AF78600B46FB70FB78FB73FB78002B57
:1017D00009D07B681B79012B03D1786800F011F8E0
:1017E00001E00023FB73FB7B83F00103DBB2002BE2
:1017F00002D07868FFF798FFFB7B18461037BD468C
:1018000080BD80B582B000AF786002217868FFF7B4
:101810006AFF786800F004F800BF0837BD4680BD55
:1018200080B582B000AF78607B6808331E2118460F
:10183000FFF7BCFD00BF0837BD4680BD80B582B054
:1018400000AF78607B6808331846FFF7D1FD00BF12
:101850000837BD4680BD80B582B000AF7860FFF725
:1018600073FE0346032B14D97B68203304211846EA
:10187000FFF778FE7B682033184600F05BFD0346D7
:10188000002B03D07B6802221A7102E07B680322DE
:101890001A7100BF0837BD4680BD000080B584B016
:1018A00000AF78600B46FB70FB78FB73FB78002B76
:1018B00036D07B681B79022B0ED17868FFF7BEFF0C
:1018C0007B685B8C002B03D0786800F039F827E048
:1018D000786800F0C1F823E07B6808331846FFF70A
:1018E000C3FD0346002B03D17B681B79032B15D165
:1018F0007B6808331846FFF7B7FD0346002B01D07D
:10190000FFF746FE0022AE210C4800F0E1FB7868AC
:10191000FFF794FF7868FFF7FBFE01E00023FB73FD
:10192000FB7B83F00103DBB2002B02D07868FFF76A
:1019300092FFFB7B18461037BD4680BDD0070020C4
:1019400080B582B000AF786003217868FFF7CBFEE6
:10195000786800F004F800BF0837BD4680BD80B548
:1019600084B000AF78607B685B8CFB817B68103350
:10197000FA8911461846FFF719FD00BF1037BD461A
:1019800080BD80B582B000AF78607B6810331846A8
:10199000FFF72EFD00BF0837BD4680BD80B584B07F
:1019A00000AF78607B685B8CFB73FFF7CDFD03466F
:1019B0001A46FB7B93420CD87B6804221A717B6821
:1019C00003F124027B685B8CDBB219461046FFF7FB
:1019D000C9FD00BF1037BD4680BD000080B584B092
:1019E00000AF78600B46FB70FB78FB73FB78002B35
:1019F00022D07B681B79042B06D17868FFF7C1FFE2
:101A0000786800F029F817E07B6810331846FFF774
:101A10002BFD0346002B0DD07868FFF7B2FFFFF7D0
:101A2000B7FD0022AE210B4800F052FB7868FFF7AB
:101A30006FFE01E00023FB73FB7B83F00103DBB24D
:101A4000002B02D07868FFF7A9FFFB7B1846103700
:101A5000BD4680BDD007002080B582B000AF786061
:101A600004217868FFF73FFE786800F004F800BFB3
:101A70000837BD4680BD80B582B000AF78607B6816
:101A8000183305211846FFF791FC00BF0837BD4603
:101A900080BD80B582B000AF78607B68183318468F
:101AA000FFF7A6FC00BF0837BD4680BD80B588B0F3
:101AB00000AF78600823FB77FFF746FD03461A4620
:101AC000FB7F93422BD807F1140304211846FFF73C
:101AD00049FD07F1100304211846FFF743FD7B6819
:101AE0005B8C0433BB610023FB607B68203307F110
:101AF0000C02B969184600F061FAFA687B699A42EB
:101B000003D07B6807221A7109E03B69064A9342B9
:101B100002D07B6806221A717B6805221A7100BF09
:101B20002037BD4680BD00BF55BB55BB80B584B0D6
:101B300000AF78600B46FB70FB78FB73FB78002BE3
:101B400037D07B681B79052B0BD17868FFF7A1FF95
:101B50000022AD211E4800F0BBFA786800F03AF888
:101B600027E07B6818331846FFF77EFC0346002BFE
:101B700007D17B681B79072B03D07B681B79062B69
:101B800015D17868FFF785FF7B6818331846FFF793
:101B90006BFC0346002B01D0FFF7FAFC0022AE21BC
:101BA0000B4800F095FA7868FFF7B2FD01E00023DA
:101BB000FB73FB7B83F00103DBB2002B02D0786860
:101BC000FFF774FFFB7B18461037BD4680BD00BF92
:101BD000D007002080B582B000AF7860052178681A
:101BE000FFF781FD786800F004F800BF0837BD46B4
:101BF00080BD80B483B000AF786000BF0C37BD46B5
:101C00005DF8047B704780B584B000AF78600B4608
:101C1000FB70FB78FB73FB78002B09D07B685B794A
:101C2000012B03D17868FFF773FD01E00023FB73FC
:101C3000FB7B18461037BD4680BD80B582B000AF33
:101C400078607B6818331846FFF7D2FB7B6808334F
:101C50001846FFF7CDFB7B6810331846FFF7C8FB2B
:101C600000BF0837BD4680BD80B582B000AF786048
:101C70007B6820334FF482720021184603F038FE4F
:101C80007868FFF7DAFF7868FFF722FD00BF0837B2
:101C9000BD4680BD80B584B000AF78607B680833F6
:101CA000FB600023BB6008E0F868FFF7C1FBFB683E
:101CB0000833FB60BB680133BB60BB68022BF3D900
:101CC00000BF00BF1037BD4680BD000080B582B0A8
:101CD00000AF78607B681B78013B042B25D801A2FC
:101CE00052F823F0F91C0008031D00080D1D000820
:101CF000171D0008211D000801217868FFF75EFD0F
:101D000014E001217868FFF7C9FD0FE00121786830
:101D1000FFF764FE0AE001217868FFF707FF05E09E
:101D200001217868FFF76FFF00E000BF00BF0837B0
:101D3000BD4680BD80B582B000AF78607B68002270
:101D40001A717B6800225A717B6808331846FFF7C6
:101D50004FFB00BF0837BD4680BD80B582B000AFE5
:101D600078600B46FB707B68FA781A707868FFF72A
:101D7000E1FF00BF0837BD4680BD80B582B000AF2F
:101D8000786000F027FA7B6814334FF482720021E8
:101D9000184603F0ADFD7868FFF7CCFF786800F0D7
:101DA00005F800BF0837BD4680BD000080B582B091
:101DB00000AF7860064804F0CDFC01217868FFF799
:101DC000CCFF7B6800221A7400BF0837BD4680BD77
:101DD000B884000880B582B000AF786000F00EFAD9
:101DE0000346002B05D07B6801221A71034804F0DA
:101DF000B1FC00BF0837BD4680BD00BFEC840008C1
:101E000080B582B000AF78607B681233184600F06E
:101E100055FA00BF0837BD4680BD80B584B000AF1D
:101E200078600B46FB70FB78FB73FB78002B0CD0C3
:101E30007B681B79012B06D17868FFF7E1FF786892
:101E400000F012F801E00023FB73FB7B83F0010339
:101E5000DBB2002B02D07868FFF7BCFFFB7B184693
:101E60001037BD4680BD000080B582B000AF7860FD
:101E7000064804F06FFC02217868FFF76EFF78686F
:101E800000F006F800BF0837BD4680BD1885000881
:101E900080B582B000AF78607B6893F81831002B72
:101EA00009D07B68083332211846FFF77FFA0848CB
:101EB00004F050FC05E07B6802221A71054804F02A
:101EC00049FC786800F0A8F800BF0837BD4680BD1F
:101ED000488500087C85000880B582B000AF786036
:101EE0007B6808331846FFF783FA00BF0837BD4602
:101EF00080BD000080B584B000AF78600B46FB70F9
:101F0000FB78FB73FB78002B4DD07B685B79012B52
:101F10000CBF01230023DAB27B681B79022B0CBFB4
:101F200001230023DBB21343DBB2002B06D0786819
:101F3000FFF7D2FF7868FFF739FF34E07B685B7901
:101F4000022B06D17868FFF7C7FF7868FFF78CFF90
:101F500029E07B6808331846FFF786FA0346002B12
:101F60001FD07868FFF7B8FF114804F0F3FB7B68D7
:101F70001B7C19460F4804F067FB7B681B7C5A1CCE
:101F8000D1B27A681174012B07D902210A4804F0F2
:101F90005BFB7868FFF70AFF05E07868FFF764FFEE
:101FA00001E00023FB73FB7B18461037BD4680BD64
:101FB000AC850008DC850008FC85000880B487B08B
:101FC00000AFF860B9607A6000237B617B681A68B3
:101FD0007B699B00F9680B441B6853403B610023FD
:101FE0007B610BE07B6901339B00FA6813441B683B
:101FF0003A6953403B617B6901337B61BB685A1E80
:102000007B699A42EED87B683A691A6000BF1C3738
:10201000BD465DF8047B704780B584B000AF786042
:102020000023BB607B681433FB6004212648FFF764
:10203000BDFA0346002B01D1002341E0FB6807F104
:10204000080204211846FFF7B9FFFB68042118466F
:10205000FFF7ACFA0346002B01D1002330E0FB6808
:102060005B88002B17D0FB68181DFB685B8819463E
:1020700007F108031A46FFF7A1FFFB681A1DFB686A
:102080005B88DBB219461046FFF790FA0346002B37
:1020900001D1002314E007F1080304211846FFF7DB
:1020A00085FA0346002B01D1002309E004210748EB
:1020B000FFF77CFA0346002B01D1002300E0012347
:1020C00018461037BD4680BD308A0008348A0008A3
:1020D00080B5C4B000AF07F58873A3F586731860A8
:1020E0000846114607F58873A3F20D1302461A70CD
:1020F00007F58873A3F587730A461A7007F5887386
:10210000A3F5847318464FF484731A46002103F034
:10211000EFFB07F58873A3F5847303221A7007F5A4
:102120008873A3F5847307F58872A2F20D121278F2
:102130009A7007F58873A3F58473AA22DA7007F5FD
:102140008873A3F5847307F58872A2F587721278F5
:1021500083F8062107F10803184600F05BF80346F0
:10216000184607F58877BD4680BD80B584B000AFBE
:1021700078607B680833FB600023BB6008E0F86888
:10218000FFF756F9FB680833FB60BB680133BB609F
:10219000BB68002BF3D000BF00BF1037BD4680BD29
:1021A00080B582B000AF78607B681B78012B02D0CD
:1021B000022B05D009E001217868FFF72EFE04E02C
:1021C00001217868FFF796FE00BF00BF0837BD46C3
:1021D00080BD000080B500AF4FF480610548FEF778
:1021E000F9FE0346044A5360034B00221A6000BF05
:1021F00080BD00BFF4080020EC08002080B400AFD0
:10220000034B1B681846BD465DF8047B704700BF52
:10221000EC08002080B584B000AF78607B689B88B4
:10222000DBB20433FB73214B5B681846FEF76CFF8F
:102230000246FB7B01339A422FD91C4B5A687B68BC
:102240001B7819461046FEF77DFF184B5A687B68CD
:1022500093F8063119461046FEF774FF134B586881
:102260007B680233FA7B1946FEF7CAFF0F4B1B68E7
:1022700001330E4A13600D4B1B6819460C4804F0DD
:10228000E3F90A4B5B681846FEF73EFF0346194622
:10229000084804F0D9F9012303E0074804F0D4F911
:1022A000002318461037BD4680BD00BFEC08002053
:1022B00084860008AC860008D886000880B582B005
:1022C00000AF7860194B1B68002B27D0174B5B6859
:1022D0007A6811461846FEF75DFF144B5A687B6812
:1022E00003F5837319461046FEF754FF0F4B5868E9
:1022F0007B68023304221946FEF7C2FF0B4B586875
:102300007B68991D7B689B881A46FEF7B9FF074BCF
:102310001B68013B054A1360012303E0044804F0F5
:1023200093F9002318460837BD4680BDEC0800200D
:102330000087000880B483B000AF78607B681B78AA
:10234000002B03D07B681B78542B0FD97B681B783C
:10235000562B03D97B681B78AA2B07D97B681B787F
:10236000AC2B0DD97B681B78FF2B09D07B685B8871
:10237000FF2B05D87B685B78BB2B01D1012300E0E4
:10238000002318460C37BD465DF8047B704780B4C7
:1023900083B000AF78600B46FB707B68FA781A77E1
:1023A0007B6800221A707B6800225A7000BF0C37CD
:1023B000BD465DF8047B704780B582B000AF7860A1
:1023C00039603B685A687B681A633B681A687B68A7
:1023D000DA62786800F070F800BF0837BD4680BD4B
:1023E00080B582B000AF78607B681B7F012B02D084
:1023F000022B04D007E0786800F074F803E07868F6
:1024000000F028F900BF00BF0837BD4680BD80B589
:1024100084B000AF78607B680433FB600023BB604E
:1024200008E0F868FFF704F8FB680833FB60BB6856
:102430000133BB60BB68022BF3D900BF00BF10376C
:10244000BD4680BD80B582B000AF786039603B6822
:102450001B781946786800F015F80346002B0BD05E
:102460007B6820330C223968184603F033FA7B6806
:1024700001225A70012300E0002318460837BD46A8
:1024800080BD000080B582B000AF78600B46FB7065
:10249000FB781946074804F0D7F87B682C33FA78A4
:1024A0001146184600F06EF9034618460837BD4637
:1024B00080BD00BF3087000880B582B000AF786073
:1024C000074804F047F901217868FFF760FF7B684F
:1024D0002C33184600F09AF900BF0837BD4680BD7E
:1024E0009087000880B584B000AF78600123FB734B
:1024F0007B685B78012B03D1786800F009F801E074
:102500000023FB73FB7B18461037BD4680BD0000DF
:1025100080B582B000AF7860064804F01BF9022154
:102520007868FFF734FF786800F006F800BF0837D6
:10253000BD4680BDBC87000880B582B000AF786022
:10254000124804F007F97B681A1D7B689B6A1946DC
:102550001046FEF72BFF7B6803F114027B685B8C4F
:1025600019461046FEF722FF7B6803F10C027B68D8
:102570009B8C19461046FEF719FF7B682C331846D2
:1025800000F036F900BF0837BD4680BDEC87000873
:1025900080B582B000AF78600D4804F0DBF87B684E
:1025A00004331846FEF724FF7B6814331846FEF701
:1025B0001FFF7B680C331846FEF71AFF7B682C332D
:1025C000184600F023F900BF0837BD4680BD00BFA4
:1025D0003488000880B582B000AF78607B6814331F
:1025E0001846FEF741FF0346002B17D07B682C33BB
:1025F000184600F0FDF87B6803F10C027B689B8CA9
:1026000019461046FEF7D2FE7B6803F114027B6880
:102610005B8C19461046FEF7C9FE0CE07B680C3354
:102620001846FEF721FF0346002B04D07B682C33AD
:10263000184600F0EBF87B6804331846FEF714FFE9
:102640000346002B02D07B6801221A7000BF0837B6
:10265000BD4680BD80B584B000AF78600123FB73B8
:102660007B685B78012B06D17868FFF791FF78686B
:10267000FFF74EFF1FE07B685B78022B06D178687E
:10268000FFF786FF7868FFF717FF14E07B680122E9
:102690001A707B689B6AB3F1FF3F06D17868FFF739
:1026A00077FF7868FFF734FF05E07868FFF770FF81
:1026B0007868FFF701FFFB7B83F00103DBB2002B9F
:1026C00002D07868FFF786FFFB7B18461037BD46BF
:1026D00080BD000080B58AB000AF07F12003002262
:1026E0001A605A603B1D00221A605A609A60DA60D4
:1026F0001A615A619A61224B4FF080421A60204B56
:1027000054225A601E4B00229A601D4B6322DA60ED
:102710001B4B00221A611A4B00229A61184801F0E3
:1027200003FC0346002B01D000F0D8F800233B62E5
:1027300000237B6207F120031946114802F04CF890
:102740000346002B01D000F0C9F860237B60002312
:10275000BB600023FB6000237B613B1D0022194608
:10276000074801F045FD0346002B01D000F0B6F804
:10277000034800F039FA00BF2837BD4680BD00BFCE
:10278000280D002080B483B000AF78600B46FB704A
:10279000FB78642B24D87B685B68002B05D17B68B1
:1027A0001B681B68FA785A6318E07B685B68042B27
:1027B00005D17B681B681A68FB7893630EE07B6821
:1027C0005B68082B05D17B681B681A68FB78D363AC
:1027D00004E07B681B681A68FB781364012300E03F
:1027E000002318460C37BD465DF8047B7047000097
:1027F00080B582B000AF78600021034801F0E4FBAF
:1028000000BF0837BD4680BD280D002080B582B0CE
:1028100000AF78600021034801F086FC00BF083754
:10282000BD4680BD280D002080B500AF0A4803F0EA
:1028300091FF0A4803F08EFF094803F08BFF094817
:1028400003F088FF0849094803F0FEFE024803F040
:1028500081FF00BF80BD00BF7C880008A4880008FD
:10286000C4880008E0880008F88800080489000887
:1028700080B586B000AF00F00FF9FFF7D5FF124822
:10288000FFF77BFA1148FFF7EFF9114B3B6100238B
:102890007B61104A3B1D07CA83E8070007F110035C
:1028A00019460D48FFF788FD3B1D19460A48FFF7FA
:1028B000C9FD0548FFF774FC0448FFF707FA06480E
:1028C000FFF78EFDF5E700BFD0070020AC06002023
:1028D000280D002010890008F40C002080B400AFFF
:1028E00072B600BFFEE7000080B594B000AF07F1FC
:1028F000200330220021184602F0FAFF07F10C03F2
:1029000000221A605A609A60DA601A610023BB6084
:10291000284B1B6C274A43F080531364254B1B6CD8
:1029200003F08053BB60BB6800237B60224B1B68B5
:10293000214A43F4404313601F4B1B6803F4404398
:102940007B607B6802233B620123FB6210233B63B5
:102950000223BB630023FB6310233B644FF4A87383
:102960007B640423BB640423FB6407F12003184643
:1029700000F042FE0346002B01D0FFF7AFFF0F230C
:10298000FB6002233B6100237B614FF48053BB61FA
:102990000023FB6107F10C030221184601F0A4F8A3
:1029A0000346002B01D0FFF799FF00BF5037BD460B
:1029B00080BD00BF003802400070004080B58AB082
:1029C00000AF07F1140300221A605A609A60DA60BF
:1029D0001A6100233B612D4B1B6B2C4A43F004030F
:1029E00013632A4B1B6B03F004033B613B69002319
:1029F000FB60264B1B6B254A43F080031363234B7C
:102A00001B6B03F08003FB60FB680023BB601F4B64
:102A10001B6B1E4A43F0010313631C4B1B6B03F03B
:102A20000103BB60BB6800237B60184B1B6B174A1C
:102A300043F002031363154B1B6B03F002037B602F
:102A40007B6800222021124800F0BCFD4FF40053A7
:102A50007B614FF40413BB610023FB6107F1140396
:102A600019460C4800F02AFC20237B610123BB613E
:102A70000023FB6100233B6207F11403194604485D
:102A800000F01CFC00BF2837BD4680BD0038024066
:102A9000000002400008024080B500AF00F0F8F9E5
:102AA000FFF722FFFFF78AFFFFF714FEFEF726FD70
:102AB000FEF746FC00BF80BD80B582B000AF0023AA
:102AC0007B60104B5B6C0F4A43F4804353640D4BA7
:102AD0005B6C03F480437B607B6800233B60094BA5
:102AE0001B6C084A43F080531364064B1B6C03F0C5
:102AF00080533B603B68072000F00CFB00BF0837A9
:102B0000BD4680BD0038024080B58AB000AF786015
:102B100007F1140300221A605A609A60DA601A61A1
:102B20007B681B681D4A934233D100233B611C4BD9
:102B30001B6C1B4A43F400331364194B1B6C03F4E6
:102B400000333B613B690023FB60154B1B6B144A50
:102B500043F001031363124B1B6B03F00103FB6093
:102B6000FB680C237B610223BB610023FB61032311
:102B70003B6207237B6207F114031946094800F002
:102B80009DFB00220021262000F0CFFA262000F035
:102B9000E8FA00BF2837BD4680BD00BF00440040B2
:102BA000003802400000024080B485B000AF786079
:102BB0007B681B68B3F1804F0DD10023FB60094B8C
:102BC0001B6C084A43F001031364064B1B6C03F0B3
:102BD0000103FB60FB6800BF1437BD465DF8047B52
:102BE000704700BF0038024080B588B000AF786001
:102BF00007F10C0300221A605A609A60DA601A61C9
:102C00007B681B68B3F1804F1DD10023BB60104B64
:102C10001B6B0F4A43F0010313630D4B1B6B03F057
:102C20000103BB60BB682023FB6002233B610023E0
:102C30007B610023BB610123FB6107F10C03194693
:102C4000044800F03BFB00BF2037BD4680BD00BFFD
:102C5000003802400000024080B400AFFEE780B4BC
:102C600000AFFEE780B400AFFEE780B400AFFEE740
:102C700080B400AFFEE780B400AF00BFBD465DF892
:102C8000047B704780B400AF00BFBD465DF8047B95
:102C9000704780B400AF00BFBD465DF8047B70474D
:102CA00080B500AFFEF7ECFB00F044F900BF80BD3B
:102CB00080B500AF024801F0BFFE00BF80BD00BF7D
:102CC000F801002080B400AF01231846BD465DF82E
:102CD000047B704780B582B000AF7860396002F045
:102CE000B5FD034616221A604FF0FF331846083729
:102CF000BD4680BD80B582B000AF78604FF0FF3137
:102D00007868FFF7E7FFFEE780B586B000AFF860B0
:102D1000B9607A6000237B610AE0AFF3008001466E
:102D2000BB685A1CBA60CAB21A707B6901337B61F6
:102D30007A697B689A42F0DB7B6818461837BD4693
:102D400080BD80B483B000AF78604FF0FF33184689
:102D50000C37BD465DF8047B704780B483B000AF8C
:102D6000786039603B684FF400525A60002318467F
:102D70000C37BD465DF8047B704780B483B000AF6C
:102D80007860012318460C37BD465DF8047B704718
:102D900080B485B000AFF860B9607A60002318464F
:102DA0001437BD465DF8047B7047000080B586B0DF
:102DB00000AF7860144A154BD31A7B617B693B6185
:102DC000134B1B68002B02D1114B124A1A60104B97
:102DD0001A687B6813443A699A4207D202F036FDBA
:102DE00003460C221A604FF0FF3309E0084B1B68C2
:102DF000FB60074B1A687B681344054A1360FB6845
:102E000018461837BD4680BD0000022000040000AF
:102E1000700D0020880D002080B400AF064BD3F861
:102E20008830054A43F47003C2F8883000BFBD46BD
:102E30005DF8047B704700BF00ED00E0DFF834D0A0
:102E40000D480E490E4A002302E0D458C450043302
:102E5000C4188C42F9D30B4A0B4C002301E01360D9
:102E60000432A242FBD3FFF7D7FF02F007FDFFF7C2
:102E7000FFFC70470000022000000020DC01002061
:102E8000408E0008DC010020880D0020FEE70000D5
:102E900080B500AF0E4B1B680D4A43F400731360FE
:102EA0000B4B1B680A4A43F480631360084B1B6892
:102EB000074A43F480731360032000F02BF90020CD
:102EC00000F008F8FFF7F8FD0023184680BD00BFAA
:102ED000003C024080B582B000AF7860124B1A68A7
:102EE000124B1B7819464FF47A73B3FBF1F3B2FB24
:102EF000F3F3184600F043F90346002B01D00123F9
:102F00000EE07B680F2B0AD8002279684FF0FF3063
:102F100000F00BF9064A7B681360002300E00123F0
:102F200018460837BD4680BD00000020080000207C
:102F30000400002080B400AF064B1B781A46064BF5
:102F40001B681344044A136000BFBD465DF8047B50
:102F5000704700BF08000020740D002080B400AF4F
:102F6000034B1B681846BD465DF8047B704700BFE5
:102F7000740D002080B485B000AF78607B6803F0EA
:102F80000703FB600C4BDB68BB60BA684FF6FF03BE
:102F90001340BB60FB681A02BB68134343F0BF6376
:102FA00043F40033BB60044ABB68D36000BF1437EE
:102FB000BD465DF8047B704700ED00E080B400AFD3
:102FC000044BDB681B0A03F007031846BD465DF897
:102FD000047B704700ED00E080B483B000AF03468F
:102FE000FB7197F90730002B0BDBFB7903F01F0215
:102FF000074997F907305B09012000FA02F241F80E
:10300000232000BF0C37BD465DF8047B704700BF2E
:1030100000E100E080B483B000AF03463960FB718B
:1030200097F90730002B0ADB3B68DAB20C4997F9B5
:1030300007301201D2B20B4483F800230AE03B6848
:10304000DAB20849FB7903F00F03043B1201D2B254
:103050000B441A7600BF0C37BD465DF8047B704701
:1030600000E100E000ED00E080B489B000AFF8605E
:10307000B9607A60FB6803F00703FB61FB69C3F189
:103080000703042B28BF0423BB61FB690433062B11
:1030900002D9FB69033B00E000237B614FF0FF3264
:1030A000BB6902FA03F3DA43BB681A407B699A40B2
:1030B0004FF0FF317B6901FA03F3D9437B680B4082
:1030C000134318462437BD465DF8047B7047000063
:1030D00080B582B000AF78607B68013BB3F1807F40
:1030E00001D301230FE00A4A7B68013B53600F21A3
:1030F0004FF0FF30FFF78EFF054B00229A60044B24
:1031000007221A60002318460837BD4680BD00BF5D
:1031100010E000E080B582B000AF78607868FFF71B
:1031200029FF00BF0837BD4680BD80B586B000AF1F
:103130000346B9607A60FB7300237B61FFF73EFFB3
:1031400078617A68B9687869FFF78EFF024697F967
:103150000F3011461846FFF75DFF00BF1837BD4618
:1031600080BD80B582B000AF0346FB7197F9073090
:103170001846FFF731FF00BF0837BD4680BD80B558
:1031800082B000AF78607868FFF7A2FF0346184668
:103190000837BD4680BD80B584B000AF78607B68DD
:1031A0009B6DFB60FFF7DAFEB8607B6893F8353003
:1031B000DBB2022B08D07B6880225A657B68002234
:1031C00083F83420012352E07B681B681A687B680F
:1031D0001B6822F016021A607B681B685A697B68BC
:1031E0001B6822F080025A617B681B6C002B03D1A4
:1031F0007B689B6C002B07D07B681B681A687B6818
:103200001B6822F008021A607B681B681A687B68DA
:103210001B6822F001021A6013E0FFF79FFE0246CE
:10322000BB68D31A052B0CD97B6820225A657B68B2
:10323000032283F835207B68002283F8342003239F
:1032400015E07B681B681B6803F00103002BE4D1C9
:103250007B68DB6D3F229A40FB689A607B680122A5
:1032600083F835207B68002283F834200023184639
:103270001037BD4680BD80B483B000AF78607B68F6
:1032800093F83530DBB2022B04D07B6880225A657C
:1032900001230CE07B68052283F835207B681B68DE
:1032A0001A687B681B6822F001021A600023184626
:1032B0000C37BD465DF8047B7047000080B489B0D0
:1032C00000AF7860396000237B6100233B610023FD
:1032D000BB610023FB6159E10122FB6902FA03F3A0
:1032E0007B613B681B687A6913403B613A697B6983
:1032F0009A4240F048813B685B6803F00303012B6E
:1033000005D03B685B6803F00303022B30D17B6878
:103310009B68BB61FB695B00032202FA03F3DB439A
:10332000BA691340BB613B68DA68FB695B0002FA6B
:1033300003F3BA691343BB617B68BA699A607B681F
:103340005B68BB610122FB6902FA03F3DB43BA69E4
:103350001340BB613B685B681B0903F00102FB691A
:1033600002FA03F3BA691343BB617B68BA695A6016
:103370003B685B6803F00303032B17D07B68DB68B3
:10338000BB61FB695B00032202FA03F3DB43BA690A
:103390001340BB613B689A68FB695B0002FA03F368
:1033A000BA691343BB617B68BA69DA603B685B68E2
:1033B00003F00303022B23D1FB69DA087B68083290
:1033C00053F82230BB61FB6903F007039B000F2217
:1033D00002FA03F3DB43BA691340BB613B681A6925
:1033E000FB6903F007039B0002FA03F3BA69134376
:1033F000BB61FB69DA087B680832B96943F82210BF
:103400007B681B68BB61FB695B00032202FA03F364
:10341000DB43BA691340BB613B685B6803F003029E
:10342000FB695B0002FA03F3BA691343BB617B6873
:10343000BA691A603B685B6803F44033002B00F004
:10344000A2800023FB60574B5B6C564A43F48043D9
:103450005364544B5B6C03F48043FB60FB68524A3B
:10346000FB699B08023352F82330BB61FB6903F010
:1034700003039B000F2202FA03F3DB43BA691340F4
:10348000BB617B68494A934219D07B68484A9342A2
:1034900013D07B68474A93420DD07B68464A9342DB
:1034A00007D07B68454A934201D1042308E00723F3
:1034B00006E0032304E0022302E0012300E00023EE
:1034C000FA6902F0030292009340BA691343BB61A8
:1034D0003549FB699B080233BA6941F82320384B10
:1034E0001B68BB613B69DB43BA691340BB613B6846
:1034F0005B6803F48033002B03D0BA693B69134344
:10350000BB612F4ABB6913602D4B5B68BB613B6994
:10351000DB43BA691340BB613B685B6803F400336B
:10352000002B03D0BA693B691343BB61244ABB69D2
:103530005360234B9B68BB613B69DB43BA69134013
:10354000BB613B685B6803F48013002B03D0BA694E
:103550003B691343BB611A4ABB699360184BDB6834
:10356000BB613B69DB43BA691340BB613B685B6885
:1035700003F40013002B03D0BA693B691343BB610A
:103580000F4ABB69D360FB690133FB61FB690F2BF9
:103590007FF6A2AE00BF00BF2437BD465DF8047BB6
:1035A000704700BF00380240003801400000024070
:1035B0000004024000080240000C024000100240DB
:1035C000003C014080B483B000AF78600B467B8044
:1035D00013467B707B78002B03D07A887B689A61D6
:1035E00003E07B881A047B689A6100BF0C37BD46F4
:1035F0005DF8047B7047000080B586B000AF78604E
:103600007B68002B01D1012367E27B681B6803F014
:103610000103002B75D0884B9B6803F00C03042B2F
:103620000CD0854B9B6803F00C03082B12D1824B06
:103630005B6803F48003B3F5800F0BD17E4B1B68EE
:1036400003F40033002B5BD07B685B68002B57D101
:10365000012342E27B685B68B3F5803F06D1764B7D
:103660001B68754A43F4803313601DE07B685B6818
:10367000B3F5A02F0CD1704B1B686F4A43F4802325
:1036800013606D4B1B686C4A43F4803313600BE08E
:10369000694B1B68684A23F480331360664B1B68D0
:1036A000654A23F4802313607B685B68002B13D08A
:1036B000FFF754FC386108E0FFF750FC02463B6915
:1036C000D31A642B01D9032307E25B4B1B6803F475
:1036D0000033002BF0D014E0FFF740FC386108E025
:1036E000FFF73CFC02463B69D31A642B01D9032344
:1036F000F3E1514B1B6803F40033002BF0D100E0E1
:1037000000BF7B681B6803F00203002B63D04A4BA9
:103710009B6803F00C03002B0BD0474B9B6803F016
:103720000C03082B1CD1444B5B6803F48003002B73
:1037300016D1414B1B6803F00203002B05D07B68B8
:10374000DB68012B01D00123C7E13B4B1B6823F051
:10375000F8027B681B69DB00374913430B603AE0D2
:103760007B68DB68002B20D0344B01221A60FFF706
:10377000F5FB386108E0FFF7F1FB02463B69D31A1D
:10378000022B01D90323A8E12B4B1B6803F0020392
:10379000002BF0D0284B1B6823F0F8027B681B69D4
:1037A000DB00254913430B6015E0244B00221A600F
:1037B000FFF7D4FB386108E0FFF7D0FB02463B6916
:1037C000D31A022B01D9032387E11B4B1B6803F09B
:1037D0000203002BF0D17B681B6803F00803002B69
:1037E00036D07B685B69002B16D0154B01221A601E
:1037F000FFF7B4FB386108E0FFF7B0FB02463B6916
:10380000D31A022B01D9032367E10B4B5B6F03F043
:103810000203002BF0D01BE0094B00221A60FFF7D7
:103820009DFB38610EE0FFF799FB02463B69D31A16
:10383000022B07D9032350E1003802400000474221
:10384000800E4742884B5B6F03F00203002BEAD1E6
:103850007B681B6803F00403002B00F097800023B3
:10386000FB75814B1B6C03F08053002B0FD10023A1
:10387000BB607D4B1B6C7C4A43F0805313647A4BD6
:103880001B6C03F08053BB60BB680123FB75774B57
:103890001B6803F48073002B18D1744B1B68734AA8
:1038A00043F480731360FFF759FB386108E0FFF7BA
:1038B00055FB02463B69D31A022B01D903230CE1C5
:1038C0006A4B1B6803F48073002BF0D07B689B6805
:1038D000012B06D1644B1B6F634A43F0010313674E
:1038E0001CE07B689B68052B0CD15F4B1B6F5E4A0D
:1038F00043F0040313675C4B1B6F5B4A43F0010307
:1039000013670BE0584B1B6F574A23F001031367F3
:10391000554B1B6F544A23F0040313677B689B6865
:10392000002B15D0FFF71AFB38610AE0FFF716FBF2
:1039300002463B69D31A41F28832934201D90323EC
:10394000CBE0494B1B6F03F00203002BEED014E0D9
:10395000FFF704FB38610AE0FFF700FB02463B6912
:10396000D31A41F28832934201D90323B5E03E4B8A
:103970001B6F03F00203002BEED1FB7D012B05D161
:10398000394B1B6C384A23F0805313647B689B6966
:10399000002B00F0A180344B9B6803F00C03082B34
:1039A0005CD07B689B69022B41D1314B00221A60AD
:1039B000FFF7D4FA386108E0FFF7D0FA02463B6916
:1039C000D31A022B01D9032387E0274B1B6803F08E
:1039D0000073002BF0D17B68DA697B681B6A1A439D
:1039E0007B685B6A9B011A437B689B6A5B08013BAF
:1039F0001B041A437B68DB6A1B061B4913434B609D
:103A00001B4B01221A60FFF7A9FA386108E0FFF7A3
:103A1000A5FA02463B69D31A022B01D903235CE0C5
:103A2000114B1B6803F00073002BF0D054E0104BD7
:103A300000221A60FFF792FA386108E0FFF78EFA69
:103A400002463B69D31A022B01D9032345E0064BFA
:103A50001B6803F00073002BF0D13DE07B689B698D
:103A6000012B07D1012338E00038024000700040EC
:103A7000600047421B4B5B68FB607B689B69012BC6
:103A800028D0FB6803F480027B68DB699A4221D16D
:103A9000FB6803F03F027B681B6A9A421AD1FA68FE
:103AA00047F6C07313407A68526A9201934211D16B
:103AB000FB6803F440327B689B6A5B08013B1B0494
:103AC0009A4207D1FB6803F070627B68DB6A1B06D1
:103AD0009A4201D0012300E0002318461837BD4662
:103AE00080BD00BF0038024080B584B000AF786070
:103AF00039607B68002B01D10123CCE0684B1B6847
:103B000003F007033A689A420CD9654B3A68D2B27F
:103B10001A70634B1B6803F007033A689A4201D09E
:103B20000123B8E07B681B6803F00203002B20D060
:103B30007B681B6803F00403002B05D0594B9B687E
:103B4000584A43F4E05393607B681B6803F0080312
:103B5000002B05D0534B9B68524A43F4604393605B
:103B6000504B9B6823F0F0027B689B684D491343E0
:103B70008B607B681B6803F00103002B44D07B68DB
:103B80005B68012B07D1474B1B6803F40033002B04
:103B900019D101237FE07B685B68022B03D07B682F
:103BA0005B68032B07D13F4B1B6803F00073002BAE
:103BB00009D101236FE03B4B1B6803F00203002B8C
:103BC00001D1012367E0374B9B6823F003027B6838
:103BD0005B68344913438B60FFF7C0F9F8600AE073
:103BE000FFF7BCF90246FB68D31A41F288329342D0
:103BF00001D903234FE02B4B9B6803F00C027B6839
:103C00005B689B009A42EBD1254B1B6803F00703CE
:103C10003A689A420CD2224B3A68D2B21A70204BC0
:103C20001B6803F007033A689A4201D0012332E08F
:103C30007B681B6803F00403002B08D0194B9B68BA
:103C400023F4E0527B68DB68164913438B607B6882
:103C50001B6803F00803002B09D0124B9B6823F468
:103C600060427B681B69DB000E4913438B6000F0E8
:103C700021F802460B4B9B681B0903F00F030A490E
:103C8000CB5C22FA03F3094A1360094B1B68184600
:103C9000FFF720F9002318461037BD4680BD00BF4E
:103CA000003C024000380240388A00080000002032
:103CB000040000202DE9B04F94B000AF00237B64D6
:103CC0000023FB6400233B640023BB64794B9B68A7
:103CD00003F00C03082B0DD0082B00F2E180002B21
:103CE00002D0042B03D0DBE0734BBB64DBE0734BEF
:103CF000BB64D8E06F4B5B6803F03F037B646D4BA4
:103D00005B6803F48003002B63D06A4B5B689B09FC
:103D10000022BB63FA63BB6BC3F308033B6300235E
:103D20007B63D7E90C4522462B464FF000004FF04D
:103D30000001590141EAD261500102460B46214679
:103D4000511A3961294663EB01037B614FF0000290
:103D50004FF00003D7E904AB59468B01514643EAC3
:103D6000916351468A015146B2EB0108594663EB13
:103D700001094FF000024FF000034FEAC90343EA84
:103D800058734FEAC80290469946234618EB03033E
:103D9000BB602B4649EB0303FB604FF000024FF082
:103DA0000003D7E9024529464B02214643EAD15395
:103DB00021464A02104619467B6C0022BB62FA6219
:103DC000D7E90A23FCF7F8FE02460B461346FB64CC
:103DD00058E0384B5B689B09002218461146C0F337
:103DE00008033B6200237B62D7E9088942464B46C1
:103DF0004FF000004FF00001590141EAD26150013B
:103E000002460B464146B2EB010A494663EB010B01
:103E10004FF000024FF000034FEA8B1343EA9A631E
:103E20004FEA8A12B2EB0A0463EB0B054FF0000273
:103E30004FF00003EB0043EA5473E20014461D46C2
:103E40004346E3183B604B4645EB03037B604FF072
:103E500000024FF00003D7E9004529468B022146B6
:103E600043EA915321468A02104619467B6C002290
:103E7000BB61FA61D7E90623FCF79EFE02460B46BA
:103E80001346FB640B4B5B681B0C03F0030301330D
:103E90005B003B64FA6C3B6CB2FBF3F3BB6402E087
:103EA000054BBB6400BFBB6C18465037BD46BDE830
:103EB000B08F00BF003802400024F40000127A00E6
:103EC00080B400AF034B1B681846BD465DF8047B09
:103ED000704700BF0000002080B500AFFFF7F0FF83
:103EE0000246054B9B689B0A03F007030349CB5C22
:103EF00022FA03F3184680BD00380240488A0008C1
:103F000080B500AFFFF7DCFF0246054B9B685B0BFB
:103F100003F007030349CB5C22FA03F3184680BD84
:103F200000380240488A000880B582B000AF78604F
:103F30007B68002B01D1012341E07B6893F83D3081
:103F4000DBB2002B06D17B68002283F83C20786826
:103F5000FEF72AFE7B68022283F83D207B681A6800
:103F60007B6804331946104600F004FA7B6801228E
:103F700083F846207B68012283F83E207B6801227B
:103F800083F83F207B68012283F840207B68012270
:103F900083F841207B68012283F842207B6801225C
:103FA00083F843207B68012283F844207B68012248
:103FB00083F845207B68012283F83D2000231846C2
:103FC0000837BD4680BD000080B584B000AF786082
:103FD00039603B68002B09D17B6893F83E30DBB237
:103FE000012B14BF01230023DBB222E03B68042B2A
:103FF00009D17B6893F83F30DBB2012B14BF01235A
:104000000023DBB215E03B68082B09D17B6893F8ED
:104010004030DBB2012B14BF01230023DBB208E0E8
:104020007B6893F84130DBB2012B14BF01230023DE
:10403000DBB2002B01D0012368E03B68002B04D1E8
:104040007B68022283F83E2013E03B68042B04D1F6
:104050007B68022283F83F200BE03B68082B04D1E9
:104060007B68022283F8402003E07B68022283F809
:1040700041207B681B6801223968184600F086FBE6
:104080007B681B68234A934207D17B681B685A6C84
:104090007B681B6842F400425A647B681B681D4AB7
:1040A000934218D07B681B68B3F1804F13D07B68B4
:1040B0001B68194A93420ED07B681B68174A9342CB
:1040C00009D07B681B68164A934204D07B681B6842
:1040D000144A934211D17B681B689B6803F0070365
:1040E000FB60FB68062B10D07B681B681A687B6836
:1040F0001B6842F001021A6007E07B681B681A68BF
:104100007B681B6842F001021A60002318461037D2
:10411000BD4680BD00000140000400400008004092
:10412000000C00400040014080B582B000AF7860D4
:1041300039607B681B6800223968184600F026FB4E
:104140007B681B68294A934217D17B681B681A6AEF
:1041500041F211131340002B0FD17B681B681A6AC0
:1041600040F244431340002B07D17B681B685A6C14
:104170007B681B6822F400425A647B681B681A6AD9
:1041800041F211131340002B0FD17B681B681A6A90
:1041900040F244431340002B07D17B681B681A6828
:1041A0007B681B6822F001021A603B68002B04D177
:1041B0007B68012283F83E2013E03B68042B04D186
:1041C0007B68012283F83F200BE03B68082B04D179
:1041D0007B68012283F8402003E07B68012283F89A
:1041E0004120002318460837BD4680BD000001402D
:1041F00080B586B000AFF860B9607A600023FB75C7
:10420000FB6893F83C30012B01D10223AEE0FB6840
:10421000012283F83C207B680C2B00F29F8001A2D6
:1042200052F823F0594200085D4300085D4300083E
:104230005D430008994200085D4300085D430008A3
:104240005D430008DB4200085D4300085D43000851
:104250005D4300081B430008FB681B68B9681846EB
:1042600000F008F9FB681B689A69FB681B6842F05C
:1042700008029A61FB681B689A69FB681B6822F058
:1042800004029A61FB681B689969BB681A69FB683C
:104290001B680A439A6164E0FB681B68B9681846AA
:1042A00000F04EF9FB681B689A69FB681B6842F4D2
:1042B00000629A61FB681B689A69FB681B6822F4BC
:1042C00080629A61FB681B689969BB681B691A0266
:1042D000FB681B680A439A6143E0FB681B68B96886
:1042E000184600F099F9FB681B68DA69FB681B68DF
:1042F00042F00802DA61FB681B68DA69FB681B6838
:1043000022F00402DA61FB681B68D969BB681A698C
:10431000FB681B680A43DA6123E0FB681B68B96825
:10432000184600F0E3F9FB681B68DA69FB681B6854
:1043300042F40062DA61FB681B68DA69FB681B689B
:1043400022F48062DA61FB681B68D969BB681B696B
:104350001A02FB681B680A43DA6102E00123FB755D
:1043600000BFFB68002283F83C20FB7D184618370D
:10437000BD4680BD80B485B000AF786039607B6891
:104380001B68FB607B68344A93420FD07B68B3F1B3
:10439000804F0BD07B68314A934207D07B68304A0C
:1043A000934203D07B682F4A934208D1FB6823F0E5
:1043B0007003FB603B685B68FA681343FB607B68D3
:1043C000254A93421BD07B68B3F1804F17D07B689E
:1043D000224A934213D07B68214A93420FD07B68D4
:1043E000204A93420BD07B681F4A934207D07B68D8
:1043F0001E4A934203D07B681D4A934208D1FB6852
:1044000023F44073FB603B68DB68FA681343FB608E
:10441000FB6823F080023B685B691343FB607B68A9
:10442000FA681A603B689A687B68DA623B681A68C7
:104430007B689A627B68084A934203D13B681A6999
:104440007B681A637B6801225A6100BF1437BD463E
:104450005DF8047B704700BF00000140000400408D
:1044600000080040000C00400040014000440140B2
:104470000048014080B487B000AF786039607B6845
:104480001B6A23F001027B681A627B681B6A7B61EE
:104490007B685B683B617B689B69FB60FB6823F022
:1044A0007003FB60FB6823F00303FB603B681B6841
:1044B000FA681343FB607B6923F002037B613B686E
:1044C0009B687A6913437B617B681C4A93420CD1D9
:1044D0007B6923F008037B613B68DB687A691343DF
:1044E0007B617B6923F004037B617B68134A934201
:1044F00011D13B6923F480733B613B6923F4007362
:104500003B613B685B693A6913433B613B689B696C
:104510003A6913433B617B683A695A607B68FA6881
:104520009A613B685A687B685A637B687A691A6249
:1045300000BF1C37BD465DF8047B7047000001409A
:1045400080B487B000AF786039607B681B6A23F065
:1045500010027B681A627B681B6A7B617B685B6800
:104560003B617B689B69FB60FB6823F4E043FB6075
:10457000FB6823F44073FB603B681B681B02FA680E
:104580001343FB607B6923F020037B613B689B68DE
:104590001B017A6913437B617B681E4A93420DD1EC
:1045A0007B6923F080037B613B68DB681B017A69D0
:1045B00013437B617B6923F040037B617B68154A71
:1045C000934213D13B6923F480633B613B6923F43D
:1045D00000633B613B685B699B003A6913433B6145
:1045E0003B689B699B003A6913433B617B683A696E
:1045F0005A607B68FA689A613B685A687B689A637C
:104600007B687A691A6200BF1C37BD465DF8047B7F
:10461000704700BF0000014080B487B000AF7860F1
:1046200039607B681B6A23F480727B681A627B683E
:104630001B6A7B617B685B683B617B68DB69FB6055
:10464000FB6823F07003FB60FB6823F00303FB604F
:104650003B681B68FA681343FB607B6923F40073B3
:104660007B613B689B681B027A6913437B617B68B3
:104670001D4A93420DD17B6923F400637B613B6843
:10468000DB681B027A6913437B617B6923F48063D7
:104690007B617B68144A934213D13B6923F48053B6
:1046A0003B613B6923F400533B613B685B691B0141
:1046B0003A6913433B613B689B691B013A691343A9
:1046C0003B617B683A695A607B68FA68DA613B68EB
:1046D0005A687B68DA637B687A691A6200BF1C37A4
:1046E000BD465DF8047B70470000014080B487B090
:1046F00000AF786039607B681B6A23F480527B6866
:104700001A627B681B6A3B617B685B687B617B68C4
:10471000DB69FB60FB6823F4E043FB60FB6823F488
:104720004073FB603B681B681B02FA681343FB6025
:104730003B6923F400533B613B689B681B033A6968
:1047400013433B617B68104A934209D17B6923F490
:1047500080437B613B685B699B017A6913437B61A2
:104760007B687A695A607B68FA68DA613B685A68E4
:104770007B681A647B683A691A6200BF1C37BD46C1
:104780005DF8047B704700BF0000014080B487B033
:1047900000AFF860B9607A60BB6803F01F030122C4
:1047A00002FA03F37B61FB681A6A7B69DB431A40F8
:1047B000FB681A62FB681A6ABB6803F01F0379681A
:1047C00001FA03F31A43FB681A6200BF1C37BD46A7
:1047D0005DF8047B7047000080B485B000AF78605E
:1047E00039607B6893F83C30012B01D1022350E003
:1047F0007B68012283F83C207B68022283F83D20FD
:104800007B681B685B68FB607B681B689B68BB60A0
:10481000FB6823F07003FB603B681B68FA68134376
:10482000FB607B681B68FA685A607B681B681C4ADF
:10483000934218D07B681B68B3F1804F13D07B681C
:104840001B68184A93420ED07B681B68164A934235
:1048500009D07B681B68154A934204D07B681B68AB
:10486000134A93420CD1BB6823F08003BB603B68C2
:104870005B68BA681343BB607B681B68BA689A6060
:104880007B68012283F83D207B68002283F83C206E
:10489000002318461437BD465DF8047B704700BFFF
:1048A000000001400004004000080040000C0040EF
:1048B0000040014080B582B000AF78607B68002B7B
:1048C00001D101233FE07B6893F83D30DBB2002B40
:1048D00006D17B68002283F83C207868FEF714F943
:1048E0007B68242283F83D207B681B68DA687B683C
:1048F0001B6822F40052DA60786800F015FD7B68CE
:104900001B681A697B681B6822F490421A617B68F5
:104910001B685A697B681B6822F02A025A617B680F
:104920001B68DA687B681B6842F40052DA607B68B7
:1049300000221A647B68202283F83D207B682022B5
:1049400083F83E20002318460837BD4680BD80B45A
:1049500085B000AFF860B9601346FB80FB6893F840
:104960003D30DBB2202B30D1BB68002B02D0FB885E
:10497000002B01D1012329E0FB6893F83C30012B87
:1049800001D1022322E0FB68012283F83C20FB686E
:10499000BA681A62FB68FA889A84FB68FA88DA8433
:1049A000FB6800221A64FB68212283F83D20FB6823
:1049B000002283F83C20FB681B68DA68FB681B68F0
:1049C00042F08002DA60002300E002231846143728
:1049D000BD465DF8047B704780B584B000AFF860D9
:1049E000B9601346FB80FB6893F83E30DBB2202BA6
:1049F0001DD1BB68002B02D0FB88002B01D1012305
:104A000016E0FB6893F83C30012B01D102230FE044
:104A1000FB68012283F83C20FB6800221A63FB88B4
:104A20001A46B968F86800F0ABFA034600E00223C2
:104A300018461037BD4680BD80B5BAB000AF78606B
:104A40007B681B681B68C7F8E4307B681B68DB6801
:104A5000C7F8E0307B681B685B69C7F8DC3000236F
:104A6000C7F8D8300023C7F8D430D7F8E43003F0C3
:104A70000F03C7F8D830D7F8D830002B0FD1D7F8AC
:104A8000E43003F02003002B09D0D7F8E03003F026
:104A90002003002B03D0786800F08BFB56E2D7F898
:104AA000D830002B00F0DE80D7F8DC3003F00103B3
:104AB000002B06D1D7F8E03003F49073002B00F000
:104AC000D180D7F8E43003F00103002B0BD0D7F8E6
:104AD000E03003F48073002B05D07B681B6C43F03F
:104AE00001027B681A64D7F8E43003F00403002B5A
:104AF0000BD0D7F8DC3003F00103002B05D07B6826
:104B00001B6C43F002027B681A64D7F8E43003F0B0
:104B10000203002B0BD0D7F8DC3003F00103002B8D
:104B200005D07B681B6C43F004027B681A64D7F8DD
:104B3000E43003F00803002B11D0D7F8E03003F085
:104B40002003002B05D1D7F8DC3003F00103002B44
:104B500005D07B681B6C43F008027B681A647B6895
:104B60001B6C002B00F0ED81D7F8E43003F020033C
:104B7000002B08D0D7F8E03003F02003002B02D040
:104B8000786800F016FB7B681B685B6903F04003E4
:104B9000402B0CBF01230023DBB2C7F8D4307B6865
:104BA0001B6C03F00803002B03D1D7F8D430002B83
:104BB0004FD0786800F01EFA7B681B685B6903F0D1
:104BC0004003402B41D17B681B681433C7F89C30ED
:104BD000D7F89C3053E8003FC7F89830D7F89830A2
:104BE00023F04003C7F8D0307B681B681433D7F834
:104BF000D020C7F8A820C7F8A430D7F8A410D7F859
:104C0000A82041E80023C7F8A030D7F8A030002B37
:104C1000D9D17B689B6B002B13D07B689B6B7D4A43
:104C20001A657B689B6B1846FEF725FB0346002B35
:104C300016D07B689B6B1B6D7A68926B1046984709
:104C40000EE0786800F086F90AE0786800F082F9F2
:104C500006E0786800F07EF97B6800221A6470E153
:104C600000BF6EE17B681B6B012B40F04A81D7F8D7
:104C7000E43003F01003002B00F04381D7F8E0305C
:104C800003F01003002B00F03C810023BB607B6825
:104C90001B681B68BB607B681B685B68BB60BB688C
:104CA0007B681B685B6903F04003402B40F0B480D5
:104CB0007B689B6B1B685B68A7F8BE30B7F8BE309B
:104CC000002B00F040817B689B8DB7F8BE209A4294
:104CD00080F039817B68B7F8BE20DA857B689B6BF2
:104CE000DB69B3F5807F00F088807B681B680C333C
:104CF000C7F88830D7F8883053E8003FC7F88430C9
:104D0000D7F8843023F48073C7F8B8307B681B6809
:104D10000C33D7F8B820C7F89420C7F89030D7F8EC
:104D20009010D7F8942041E80023C7F88C30D7F8CA
:104D30008C30002BD9D17B681B6814337B677B6F69
:104D400053E8003F3B673B6F23F00103C7F8B430E3
:104D50007B681B681433D7F8B420C7F88020FB6742
:104D6000F96FD7F8802041E80023BB67BB6F002BA9
:104D7000E1D17B681B6814333B663B6E53E8003F10
:104D8000FB65FB6D23F04003C7F8B0307B681B6800
:104D90001433D7F8B020FA66BB66B96EFA6E41E8F4
:104DA00000237B667B6E002BE3D17B68202283F897
:104DB0003E207B6800221A637B681B680C33FB640F
:104DC000FB6C53E8003FBB64BB6C23F01003C7F8D7
:104DD000AC307B681B680C33D7F8AC20BA657B65B8
:104DE000796DBA6D41E800233B653B6D002BE3D143
:104DF0007B689B6B1846FEF7CEF97B689A8D7B68C3
:104E0000DB8D9BB2D31A9BB21946786800F0ACF8E0
:104E100099E000BFBB5000087B689A8D7B68DB8DF2
:104E20009BB2D31AA7F8CE307B68DB8D9BB2002BE8
:104E300000F08B80B7F8CE30002B00F086807B68C6
:104E40001B680C33BB63BB6B53E8003F7B637B6B1E
:104E500023F49073C7F8C8307B681B680C33D7F80D
:104E6000C8207A643B64396C7A6C41E80023FB63A8
:104E7000FB6B002BE3D17B681B6814337B627B6A7E
:104E800053E8003F3B623B6A23F00103C7F8C4309C
:104E90007B681B681433D7F8C4203A63FB62F96A55
:104EA0003A6B41E80023BB62BB6A002BE3D17B680D
:104EB000202283F83E207B6800221A637B681B68EF
:104EC0000C333B613B6953E8003FFB60FB6823F018
:104ED0001003C7F8C0307B681B680C33D7F8C020BC
:104EE000FA61BB61B969FA6941E800237B617B69BA
:104EF000002BE3D1B7F8CE301946786800F034F8CB
:104F000023E0D7F8E43003F08003002B09D0D7F872
:104F1000E03003F08003002B03D0786800F0E1F864
:104F200014E0D7F8E43003F04003002B0ED0D7F89C
:104F3000E03003F04003002B08D0786800F021F93E
:104F400004E000BF02E000BF00E000BFE837BD465C
:104F500080BD00BF80B483B000AF786000BF0C3765
:104F6000BD465DF8047B704780B483B000AF7860C5
:104F70000B467B8000BF0C37BD465DF8047B704755
:104F800080B485B000AFF860B9601346FB80FB6861
:104F9000BA689A62FB68FA889A85FB68FA88DA85AB
:104FA000FB6800221A64FB68222283F83E20FB681B
:104FB000002283F83C20FB681B68DA68FB681B68EA
:104FC00042F48072DA60FB681B685A69FB681B68F0
:104FD00042F001025A61FB681B68DA68FB681B68D3
:104FE00042F02002DA60002318461437BD465DF80F
:104FF000047B704780B495B000AF78607B681B6815
:105000000C337B637B6B53E8003F3B633B6B23F4C8
:105010009073FB647B681B680C33FA6C3A64FB6327
:10502000F96B3A6C41E80023BB63BB6B002BE5D105
:105030007B681B6814333B623B6A53E8003FFB61AB
:10504000FB6923F00103BB647B681B681433BA6CF3
:10505000FA62BB62B96AFA6A41E800237B627B6A42
:10506000002BE5D17B681B6B012B19D17B681B687A
:105070000C33FB60FB6853E8003FBB60BB6823F068
:1050800010037B647B681B680C337A6CBA617B61AC
:105090007969BA6941E800233B613B69002BE5D19E
:1050A0007B68202283F83E207B6800221A6300BFC1
:1050B0005437BD465DF8047B704780B584B000AFBF
:1050C00078607B689B6BFB60FB680022DA85FB687D
:1050D0000022DA84F868FFF73DFF00BF1037BD46B5
:1050E00080BD80B485B000AF78607B6893F83D30B8
:1050F000DBB2212B3ED17B689B68B3F5805F14D176
:105100007B681B69002B10D17B681B6AFB60FB6806
:105110001B881A467B681B68C2F308025A607B68CA
:105120001B6A9A1C7B681A6208E07B681B6A591C20
:105130007A6811621A787B681B685A607B68DB8C1E
:105140009BB2013B9BB27A681946D184002B0FD1E8
:105150007B681B68DA687B681B6822F08002DA6073
:105160007B681B68DA687B681B6842F04002DA6083
:10517000002300E0022318461437BD465DF8047B87
:10518000704780B582B000AF78607B681B68DA68D2
:105190007B681B6822F04002DA607B68202283F87B
:1051A0003D207868FCF734FA002318460837BD46DE
:1051B00080BD80B58CB000AF78607B6893F83E30DE
:1051C000DBB2222B40F0AB807B689B68B3F5805F3D
:1051D00017D17B681B69002B13D10023FB627B680E
:1051E0009B6ABB627B681B685B689BB2C3F3080366
:1051F0009AB2BB6A1A807B689B6A9A1C7B689A6227
:1052000026E07B689B6AFB620023BB627B689B682D
:10521000B3F5805F07D07B689B68002B0AD17B6861
:105220001B69002B06D17B681B685B68DAB2FB6ADE
:105230001A7008E07B681B685B68DBB203F07F03D1
:10524000DAB2FB6A1A707B689B6A5A1C7B689A62A6
:105250007B68DB8D9BB2013B9BB27A681946D18596
:10526000002B5AD17B681B68DA687B681B6822F0C8
:105270002002DA607B681B68DA687B681B6822F4AE
:105280008072DA607B681B685A697B681B6822F051
:1052900001025A617B68202283F83E207B681B6BE9
:1052A000012B35D17B6800221A637B681B680C33A5
:1052B0007B617B6953E8003F3B613B6923F010034E
:1052C0007B627B681B680C337A6A3A62FB61F9691E
:1052D0003A6A41E80023BB61BB69002BE5D17B68DA
:1052E0001B681B6803F01003102B0AD10023FB601E
:1052F0007B681B681B68FB607B681B685B68FB60E6
:10530000FB687B689B8D19467868FFF72DFE02E0ED
:105310007868FCF7B1F9002302E0002300E00223E3
:1053200018463037BD4680BD2DE9B04FC0B000AF44
:10533000C7F8F400D7F8F4301B681B6923F4405019
:10534000D7F8F430D968D7F8F4301A6840EA010386
:105350001361D7F8F4309A68D7F8F4301B691A4310
:10536000D7F8F4305B691A43D7F8F430DB6913439C
:10537000C7F8F830D7F8F4301B68DB6823F416411F
:1053800021F00C01D7F8F4301A68D7F8F8300B4345
:10539000D360D7F8F4301B685B6923F44070D7F80A
:1053A000F4309969D7F8F4301A6840EA0103536180
:1053B000D7F8F4301A688F4B9A4205D0D7F8F430FA
:1053C0001A688D4B9A4204D1FEF79AFDC7F8FC008B
:1053D00003E0FEF781FDC7F8FC00D7F8F430DB6985
:1053E000B3F5004F40F00C81D7F8FC300022C7F82D
:1053F000E830C7F8EC20D7E93A4522462B46911809
:10540000B9655B41FB65D7E91623214612EB01081C
:10541000294643EB01094FF000024FF000034FEA29
:10542000C90343EA58734FEAC80290469946234697
:1054300018EB0303C7F8E0302B4649EB0303C7F82A
:10544000E430D7F8F4305B680022C7F8D830C7F8EA
:10545000DC20D7E936120B46DB183B65134642EBDE
:1054600003037B65D7E91423D7E93801FBF7A4FBD5
:1054700002460B46614BA3FB02235B091C01D7F8D4
:10548000FC300022C7F8D030C7F8D420D7E93489DF
:1054900042464B469118B9645B41FB64D7E912233D
:1054A000414612EB010A494643EB010B4FF0000263
:1054B0004FF000034FEACB0343EA5A734FEACA02A4
:1054C00092469B4643461AEB0303C7F8C8304B4647
:1054D0004BEB0303C7F8CC30D7F8F4305B680022FD
:1054E000C7F8C030C7F8C420D7E930120B46DB1824
:1054F0003B64134642EB03037B64D7E91023D7E9EF
:105500003201FBF759FB02460B4611463B4BA3FB0E
:1055100001235B09642202FB03F3CB1ADB0003F1D6
:105520003202364BA3FB02235B095B0003F4F873E2
:105530001C44D7F8FC300022C7F8B830C7F8BC20AC
:10554000D7E92E8942464B469118B9635B41FB630C
:10555000D7E90E2341465118396349464B417B63D5
:105560004FF000024FF00003D7E90CAB5946CB00D7
:10557000514643EA51735146CA0010461946034644
:1055800042469B18C7F8B0304B460A4642EB03032D
:10559000C7F8B430D7F8F4305B680022C7F8A830F9
:1055A000C7F8AC20D7E92A120B46DB18BB621346BA
:1055B00042EB0303FB62D7E90A23D7E92C01FBF78F
:1055C000FBFA02460B460D4BA3FB02135B09642159
:1055D00001FB03F3D31ADB003233084AA2FB032397
:1055E0005B0903F00702D7F8F4301B6822449A6085
:1055F00005E100BF00100140001401401F85EB5180
:10560000D7F8FC300022C7F8A030C7F8A420D7E9AB
:10561000288942464B46911839625B417B62D7E943
:10562000082341465418494643EB01054FF0000258
:105630004FF00003EB0043EA5473E20014461D46AA
:105640004346E318C7F898304B4645EB0303C7F8C9
:105650009C30D7F8F4305B680022C7F89030C7F868
:1056600094204FF000024FF00003D7E9244529466B
:105670008B00214643EA917321468A00D7E926012F
:10568000FBF79AFA02460B46604BA3FB02235B0929
:105690001C01D7F8FC300022C7F88830C7F88C20EE
:1056A000D7E9228942464B469118B9615B41FB61BB
:1056B000D7E9062341465118396149464B417B6180
:1056C0004FF000024FF00003D7E904AB5946CB007E
:1056D000514643EA51735146CA00104619460346E3
:1056E00042469B18C7F880304B460A4642EB0303FC
:1056F000C7F88430D7F8F4305B680022BB67FA67DC
:105700004FF000024FF00003D7E91E8949468B0095
:10571000414643EA917341468A00D7E92001FBF7ED
:105720004BFA02460B46394BA3FB02135B0964217B
:1057300001FB03F3D31A1B013233344AA2FB0323C8
:105740005B0903F0F0031C44D7F8FC3000223B67F0
:105750007A67D7E91C8942464B469118B9605B418C
:10576000FB60D7E9022341465118396049464B4155
:105770007B604FF000024FF00003D7E900AB5946C1
:10578000CB00514643EA51735146CA0010461946B0
:10579000034642469B18BB664B460A4642EB030350
:1057A000FB66D7F8F4305B6800223B667A664FF000
:1057B00000024FF00003D7E9188949468B004146A3
:1057C00043EA917341468A00D7E91A01FBF7F4F9DD
:1057D00002460B460D4BA3FB02135B09642101FB40
:1057E00003F3D31A1B013233084AA2FB03235B09DC
:1057F00003F00F02D7F8F4301B6822449A6000BF10
:1058000007F58077BD46BDE8B08F00BF1F85EB511F
:105810001FB514461A46094B1B680546D8684CB19B
:10582000074B0091CDE9013406492B4600F014F8EE
:1058300001F068F8044B1C46F3E700BF0C000020A1
:10584000508A00085D8A00088B8A0008014B18689E
:10585000704700BF0C0000200EB403B5014603AB37
:10586000054853F8042B0068019300F053F902B087
:105870005DF804EB03B070470C00002070B50D4DCF
:105880000D4C641BA4100026A64209D10B4D0C4CF4
:1058900002F092FD641BA4100026A64205D170BD43
:1058A00055F8043B98470136EEE755F8043B984716
:1058B0000136F2E7388E0008388E0008388E00086E
:1058C0003C8E0008024B0146186800F085B800BF06
:1058D0000C0000200A44914200F1FF3300D17047D0
:1058E00010B511F8014B03F8014F9142F9D110BDE9
:1058F00002440346934200D1704703F8011BF9E7C5
:1059000037B5002944D051F8043C0190002BA1F197
:105910000404B8BFE41802F099F81E4A019813680D
:1059200033B96360146003B0BDE8304002F094B84E
:10593000A34208D9256861198B4201BF19685B68C9
:1059400049192160EDE71A465B680BB1A342FAD909
:1059500011685518A5420BD1246821445418A3425C
:105960001160E0D11C685B68536021441160DAE784
:1059700002D90C230360D6E7256861198B4204BF66
:1059800019685B68636004BF491921605460CAE705
:1059900003B030BD780D002070B50E4E0C46316856
:1059A000054611B900F0DEFE30602146284600F0C1
:1059B000D9FE431C0AD0C41C24F00304A04207D023
:1059C000211A284600F0CEFE013001D14FF0FF34FD
:1059D000204670BD7C0D00202DE9F041CD1C25F046
:1059E000030508350C2D38BF0C25002D074601DBBB
:1059F000A94205D90C233B6000263046BDE8F08162
:105A00002E4E02F023F833681C4634BB2946384634
:105A1000FFF7C2FF431C04464DD134682646002ED2
:105A200040D123683146384604EB030800F09AFE63
:105A300080453AD1216803356D1A25F003050835F4
:105A40000C2D38BF0C2529463846FFF7A5FF01303D
:105A50002BD023682B4423600EE02268521B1ED4F7
:105A60000B2A16D96119A342256018BF59606368D3
:105A700008BF316062514B60384604F10B0601F0FB
:105A8000EBFF26F00706231DF21AB6D09B1BA3508E
:105A9000B3E76268A3420CBF32605A60ECE723466A
:105AA0006468B2E734467668B9E70C233B60384651
:105AB00001F0D2FFA1E72560DEE700BF780D0020EE
:105AC0009368013B002B10B4936008DA9469A342F9
:105AD00001DB0A2903D15DF8044B00F053BE1368C3
