:020000040800F2
:1000000000000220492E0008652C00086B2C000817
:10001000712C0008772C00087D2C000800000000DF
:10002000000000000000000000000000832C000819
:10003000912C0008000000009F2C0008AD2C000847
:10004000992E0008992E0008992E0008992E000874
:10005000992E0008992E0008992E0008992E000864
:10006000992E0008992E0008992E0008992E000854
:10007000992E0008992E0008992E0008992E000844
:10008000992E0008992E0008992E00080000000003
:10009000000000000000000000000000992E000891
:1000A000992E0008992E0008992E0008992E000814
:1000B000992E0008992E0008992E0008992E000804
:1000C000992E0008992E0008992E0008992E0008F4
:1000D000992E0008992E0008BD2C00080000000091
:1000E000992E0008992E0008992E000800000000A3
:1000F000000000000000000000000000992E000831
:1001000000000000992E0008992E0008992E000882
:1001100000000000000000000000000000000000DF
:10012000992E0008992E0008992E0008992E000893
:10013000992E0008000000000000000000000000F0
:10014000000000000000000000000000992E0008E0
:10015000992E0008992E0008992E0008992E000863
:10016000992E0008992E00080000000000000000F1
:10017000000000000000000000000000000000007F
:1001800000000000992E00080000000000000000A0
:08019000992E0008992E0008C9
:1001A00010B5054C237833B9044B13B10448AFF3B1
:1001B00000800123237010BDF40100200000000026
:1001C0009C81000808B5034B1BB103490348AFF3FA
:1001D000008008BD00000000F80100209C8100089C
:1001E000034613F8012B002AFBD1181A0138704777
:1001F00001F0FF01102A2BDB10F0070F08D010F8D8
:10020000013B013A8B422DD010F0070F42B3F6D1DB
:10021000F0B441EA012141EA014122F007047FF0F4
:1002200000070023F0E80256083C85EA010586EA4B
:10023000010685FA47F5A3FA87F586FA47F6A5FA87
:1002400087F68EB9EED1F0BC01F0FF0102F0070293
:1002500032B110F8013B013A83EA010313B1F8D13E
:100260000020704701387047002D06BF354603381F
:10027000073815F0010F07D1013015F4807F02BF58
:10028000013015F4C03F0130F0BC0138704700BFA9
:1002900081F0004102E000BF83F0004330B54FEA37
:1002A00041044FEA430594EA050F08BF90EA020FA4
:1002B0001FBF54EA000C55EA020C7FEA645C7FEA37
:1002C000655C00F0E2804FEA5454D4EB5555B8BF5A
:1002D0006D420CDD2C4480EA020281EA030382EACB
:1002E000000083EA010180EA020281EA0303362D5D
:1002F00088BF30BD11F0004F4FEA01314FF4801C30
:100300004CEA113102D0404261EB410113F0004F41
:100310004FEA03334CEA133302D0524263EB4303F8
:1003200094EA050F00F0A780A4F10104D5F1200E96
:100330000DDB02FA0EFC22FA05F2801841F10001F1
:1003400003FA0EF2801843FA05F359410EE0A5F1C5
:1003500020050EF1200E012A03FA0EFC28BF4CF0F6
:10036000020C43FA05F3C01851EBE37101F00045AC
:1003700007D54FF0000EDCF1000C7EEB00006EEBB9
:100380000101B1F5801F1BD3B1F5001F0CD3490843
:100390005FEA30004FEA3C0C04F101044FEA44529A
:1003A00012F5800F80F09A80BCF1004F08BF5FEA21
:1003B000500C50F1000041EB045141EA050130BD01
:1003C0005FEA4C0C404141EB0101013C28BFB1F513
:1003D000801FE9D291F0000F04BF01460020B1FA5E
:1003E00081F308BF2033A3F10B03B3F120020CDA31
:1003F0000C3208DD02F1140CC2F10C0201FA0CF00F
:1004000021FA02F10CE002F11402D8BFC2F1200C73
:1004100001FA02F120FA0CFCDCBF41EA0C01904029
:10042000E41AA2BF01EB0451294330BD6FEA040472
:100430001F3C1CDA0C340EDC04F11404C4F120025D
:1004400020FA04F001FA02F340EA030021FA04F36F
:1004500045EA030130BDC4F10C04C4F1200220FAC6
:1004600002F001FA04F340EA0300294630BD21FA04
:1004700004F0294630BD94F0000F83F4801306BFCA
:1004800081F480110134013D4EE77FEA645C18BFBE
:100490007FEA655C29D094EA050F08BF90EA020F55
:1004A00005D054EA000C04BF1946104630BD91EA4D
:1004B000030F1EBF0021002030BD5FEA545C05D150
:1004C0004000494128BF41F0004130BD14F580048F
:1004D0003CBF01F5801130BD01F0004545F0FE4103
:1004E00041F470014FF0000030BD7FEA645C1ABF38
:1004F000194610467FEA655C1CBF0B46024650EA6F
:10050000013406BF52EA033591EA030F41F400219A
:1005100030BD00BF90F0000F04BF0021704730B520
:100520004FF4806404F132044FF000054FF00001F5
:1005300050E700BF90F0000F04BF0021704730B5B6
:100540004FF4806404F1320410F0004548BF40428B
:100550004FF000013EE700BF42004FEAE2014FEAE0
:1005600031014FEA02701FBF12F07F4393F07F4FBB
:1005700081F06051704732F07F4208BF704793F0BE
:100580007F4F04BF41F40021704730B54FF46074D1
:1005900001F0004521F000411CE700BF50EA0102D4
:1005A00008BF704730B54FF000050AE050EA01027D
:1005B00008BF704730B511F0004502D5404261EBED
:1005C00041014FF4806404F132045FEA915C3FF42E
:1005D000D8AE4FF003025FEADC0C18BF03325FEACB
:1005E000DC0C18BF033202EBDC02C2F1200300FA7C
:1005F00003FC20FA02F001FA03FE40EA0E0021FAA1
:1006000002F11444BDE600BF70B54FF0FF0C4CF48E
:10061000E06C1CEA11541DBF1CEA135594EA0C0F40
:1006200095EA0C0F00F0DEF82C4481EA030621EA7B
:100630004C5123EA4C5350EA013518BF52EA0335B6
:1006400041F4801143F4801338D0A0FB02CE4FF068
:100650000005E1FB02E506F00042E0FB03E54FF098
:100660000006E1FB03569CF0000F18BF4EF0010E90
:10067000A4F1FF04B6F5007F64F5407404D25FEA8C
:100680004E0E6D4146EB060642EAC62141EA55513F
:100690004FEAC52040EA5E504FEACE2EB4F1FD0C81
:1006A00088BFBCF5E06F1ED8BEF1004F08BF5FEAFF
:1006B000500E50F1000041EB045170BD06F00046B1
:1006C00046EA010140EA020081EA0301B4EB5C045E
:1006D000C2BFD4EB0C0541EA045170BD41F4801156
:1006E0004FF0000E013C00F3AB8014F1360FDEBF7B
:1006F000002001F0004170BDC4F10004203C35DA57
:100700000C341BDC04F11404C4F1200500FA05F3D9
:1007100020FA04F001FA05F240EA020001F000427A
:1007200021F0004110EBD37021FA04F642EB0601F0
:100730005EEA430E08BF20EAD37070BDC4F10C041A
:10074000C4F1200500FA04F320FA05F001FA04F2DE
:1007500040EA020001F0004110EBD37041F10001CA
:100760005EEA430E08BF20EAD37070BDC4F12005D5
:1007700000FA05F24EEA020E20FA04F301FA05F23D
:1007800043EA020321FA04F001F0004121FA04F2E5
:1007900020EA020000EBD3705EEA430E08BF20EAB5
:1007A000D37070BD94F0000F0FD101F000464000EF
:1007B00041EB010111F4801F08BF013CF7D041EA71
:1007C000060195F0000F18BF704703F00046520075
:1007D00043EB030313F4801F08BF013DF7D043EA46
:1007E0000603704794EA0C0F0CEA135518BF95EAFC
:1007F0000C0F0CD050EA410618BF52EA4306D1D183
:1008000081EA030101F000414FF0000070BD50EAA1
:10081000410606BF1046194652EA430619D094EA2B
:100820000C0F02D150EA013613D195EA0C0F05D115
:1008300052EA03361CBF104619460AD181EA030169
:1008400001F0004141F0FE4141F470014FF0000021
:1008500070BD41F0FE4141F4780170BD70B54FF0BC
:10086000FF0C4CF4E06C1CEA11541DBF1CEA13553C
:1008700094EA0C0F95EA0C0F00F0A7F8A4EB05041E
:1008800081EA030E52EA03354FEA013100F0888015
:100890004FEA03334FF0805545EA131343EA1263DE
:1008A0004FEA022245EA111545EA10654FEA002693
:1008B0000EF000419D4208BF964244F1FD0404F54C
:1008C000407402D25B084FEA3202B61A65EB0305A8
:1008D0005B084FEA32024FF480104FF4002CB6EB65
:1008E000020E75EB030E22BFB61A754640EA0C00E5
:1008F0005B084FEA3202B6EB020E75EB030E22BF25
:10090000B61A754640EA5C005B084FEA3202B6EB65
:10091000020E75EB030E22BFB61A754640EA9C0024
:100920005B084FEA3202B6EB020E75EB030E22BFF4
:10093000B61A754640EADC0055EA060E18D04FEAB2
:10094000051545EA16754FEA06164FEAC30343EA52
:1009500052734FEAC2025FEA1C1CC0D111F4801F1F
:100960000BD141EA00014FF000004FF0004CB6E718
:1009700011F4801F04BF01430020B4F1FD0C88BFB7
:10098000BCF5E06F3FF6AFAEB5EB030C04BFB6EBC2
:10099000020C5FEA500C50F1000041EB045170BDB5
:1009A0000EF0004E4EEA113114EB5C04C2BFD4EBE2
:1009B0000C0541EA045170BD41F480114FF0000E66
:1009C000013C90E645EA060E8DE60CEA135594EAE2
:1009D0000C0F08BF95EA0C0F3FF43BAF94EA0C0FE5
:1009E0000AD150EA01347FF434AF95EA0C0F7FF45A
:1009F00025AF104619462CE795EA0C0F06D152EAAE
:100A000003353FF4FDAE1046194622E750EA410691
:100A100018BF52EA43067FF4C5AE50EA41047FF4A2
:100A20000DAF52EA43057FF4EBAE12E74FF0FF3C07
:100A300006E000BF4FF0010C02E000BF4FF0010CD8
:100A40004DF804CD4FEA410C7FEA6C5C4FEA430C51
:100A500018BF7FEA6C5C1BD001B050EA410C0CBFA0
:100A600052EA430C91EA030F02BF90EA020F002002
:100A7000704710F1000F91EA030F58BF994208BF69
:100A800090422CBFD8176FEAE37040F00100704726
:100A90004FEA410C7FEA6C5C02D150EA013C07D17D
:100AA0004FEA430C7FEA6C5CD6D152EA033CD3D0C8
:100AB0005DF8040B704700BF8446104662468C46C2
:100AC0001946634600E000BF01B5FFF7B7FF0028F5
:100AD00048BF10F1000F01BD4DF808EDFFF7F4FF1E
:100AE0000CBF012000205DF808FB00BF4DF808EDA9
:100AF000FFF7EAFF34BF012000205DF808FB00BFCC
:100B00004DF808EDFFF7E0FF94BF012000205DF8ED
:100B100008FB00BF4DF808EDFFF7CEFF94BF0120A2
:100B200000205DF808FB00BF4DF808EDFFF7C4FF9B
:100B300034BF012000205DF808FB00BF4FEA410CE4
:100B40007FEA6C5C02D150EA013C0AD14FEA430CC7
:100B50007FEA6C5C02D152EA033C02D14FF0000004
:100B600070474FF0010070474FEA410212F5001242
:100B700015D211D56FF47873B3EB625212D94FEAE4
:100B8000C12343F0004343EA505311F0004F23FACE
:100B900002F018BF404270474FF00000704750EA23
:100BA000013005D111F0004008BF6FF000407047E0
:100BB0004FF00000704700BF53B94AB9002908BF81
:100BC00000281CBF4FF0FF314FF0FF3000F06EB92E
:100BD000ADF1080C6DE904CE00F006F8DDF804E094
:100BE000DDE9022304B070472DE9F047089D044673
:100BF0008C46002B40F083808A42174647D9B2FAD0
:100C000082F242B1C2F1200024FA00F091409740F4
:100C100040EA010C94404FEA1748230CBCFBF8F65D
:100C20001FFA87FE08FB16C143EA014306FB0EF1DB
:100C3000994209D9FB1806F1FF3080F019819942D9
:100C400040F21681023E3B445B1AA4B2B3FBF8F0BB
:100C500008FB103344EA034400FB0EFEA64509D905
:100C60003C1900F1FF3380F00581A64540F2028176
:100C700002383C4440EA0640A4EB0E0400261DB1B5
:100C8000D4400023C5E900433146BDE8F08702B9EE
:100C9000FFDEB2FA82F2002A50D1CB1B4FEA174E88
:100CA0001FFA87F80126B3FBFEFC210C0EFB1C3358
:100CB00041EA034108FB0CF38B4207D979180CF188
:100CC000FF3002D28B4200F2E9808446C91AA3B2F7
:100CD000B1FBFEF00EFB101143EA014408FB00F8E3
:100CE000A04507D93C1900F1FF3302D2A04500F21C
:100CF000D9801846A4EB080440EA0C40BFE78B42B9
:100D000009D9002D00F0B1800026C5E90001304668
:100D10003146BDE8F087B3FA83F6002E4AD18B4204
:100D200002D3824200F2B880841A61EB03010120F1
:100D30008C46002DA8D0C5E9004CA5E7C2F12003E0
:100D400020FA03F6974001FA02F04FEA174ED94015
:100D50003043030CB1FBFEF61FFA87F80EFB1611A9
:100D600043EA014306FB08F1994204FA02F409D967
:100D7000FB1806F1FF3C80F08D80994240F28A809A
:100D8000023E3B445B1A81B2B3FBFEF00EFB103314
:100D900041EA034100FB08F38B4207D9791800F1BF
:100DA000FF3C73D28B4271D902383944CB1A40EAE6
:100DB000064678E7C6F1200C03FA06F422FA0CF393
:100DC0001C4320FA0CF701FA06F34FEA144E21FAFD
:100DD0000CF11F433B0CB1FBFEF91FFA84F80EFB2C
:100DE000191143EA014109FB08FA8A4502FA06F2A1
:100DF00000FA06F308D9611809F1FF3048D28A4594
:100E000046D9A9F102092144A1EB0A01BFB2B1FB05
:100E1000FEF00EFB101147EA014700FB08F8B84549
:100E200007D9E71900F1FF312ED2B8452CD9023885
:100E3000274440EA0940A7EB0807A0FB02894F4579
:100E4000C64649461AD317D05DB1B3EB0E0267EB25
:100E5000010707FA0CFCF2404CEA0202F740C5E930
:100E6000002700263146BDE8F0872E4628460BE7CE
:100E70000646E9E61846FDE64345E5D2B8EB020E24
:100E800069EB04010138DFE70846D2E760468DE7E9
:100E90008146B9E7664675E730464AE7ACF1020C91
:100EA000394413E702383C4424E700BF704700BFD1
:100EB00080B582B000AF78607B68002B05D1194BFC
:100EC000194A2621194804F0D9FB7B681B7C002BAA
:100ED0000BD07B689B6801337A68D268B3FBF2F170
:100EE00002FB01F29A1A7B689A607B685B680133A7
:100EF0007A68D268B3FBF2F102FB01F29A1A7B68BE
:100F00005A607B685A687B689B689A420CBF0123D1
:100F10000023DBB21A467B681A7400BF0837BD464F
:100F200080BD00BFB8810008C4860008C0810008E9
:100F300080B582B000AF78607B68002B05D10C4B88
:100F40000C4A39210C4804F099FB7B6800221A7482
:100F50007B689B6801337A68D268B3FBF2F102FBCD
:100F600001F29A1A7B689A6000BF0837BD4680BDBF
:100F7000B8810008D8860008C081000880B582B01A
:100F800000AF78607B68002B05D10C4B0C4A4E21DA
:100F90000C4804F073FB7B681B7C002B07D17B683B
:100FA0009A687B685B689A4201D1012300E00023C4
:100FB000DBB218460837BD4680BD00BFB8810008C7
:100FC000EC860008C081000880B584B000AF78606E
:100FD00039607B68002B02D03B68002B05D1174B92
:100FE000174A6921174804F049FB142004F0A0FBBC
:100FF0000346FB60FB68002B05D1134B104A6C21A4
:10100000104804F03BFBFB687A681A60FB683A689A
:10101000DA60F86800F01CF8F868FFF7AFFF0346E5
:10102000002B05D1094B064A7221064804F026FB25
:10103000FB6818461037BD4680BD00BFE48100083C
:1010400000870008C0810008B8810008F48100080A
:1010500080B582B000AF78607B68002B05D1094B6A
:10106000094A8921094804F009FB7B6800225A607B
:101070007B6800229A607B6800221A7400BF0837E0
:10108000BD4680BDB881000814870008C0810008F3
:1010900080B584B000AF78607B68002B05D1144B1D
:1010A000144A9721144804F0E9FA7B68DB68FB6076
:1010B0007B681B7C002B15D17B685A687B689B681A
:1010C0009A4206D37B685A687B689B68D31AFB6098
:1010D00008E07B68DA687B685B681A447B689B6819
:1010E000D31AFB60FB6818461037BD4680BD00BFB1
:1010F000B881000828870008C081000890B583B037
:1011000000AF78607B68002B05D1084B084ABE21F0
:10111000084804F0B3FA7B68DC687868FFF7B8FF2A
:101120000346E31A18460C37BD4690BDB881000847
:1011300044870008C081000880B582B000AF7860A5
:101140000B46FB707B68002B03D07B681B68002B71
:1011500005D10A4B0A4ACA210A4804F08FFA7B6873
:101160001A687B685B681344FA781A707868FFF72E
:101170009FFE00BF0837BD4680BD00BF108200083B
:1011800064870008C081000880B584B000AF786033
:1011900039607B68002B06D03B68002B03D07B684E
:1011A0001B68002B05D1104B104ADA21104804F0BF
:1011B00065FA0023FB607868FFF7E0FE0346002B2A
:1011C0000CD17B681A687B689B6813441A783B686B
:1011D0001A707868FFF7ACFE0123FB60FB68DBB296
:1011E00018461037BD4680BD2C820008788700085D
:1011F000C081000880B586B000AFF860B9601346C2
:10120000FB71FB68002B03D0FB681B68002B05D12A
:10121000154B164AF321164804F030FAFB681B7C84
:10122000002B01D001231AE0F868FFF767FF0246A0
:10123000FB799A4201D2022311E000237B6109E08D
:101240007B695A1C7A61BA6813441B781946F8689E
:10125000FFF772FFFB797A699A42F1D300231846AF
:101260001837BD4680BD00BF108200088C8700087B
:10127000C081000880B586B000AFF860B9607A60C0
:10128000FB68002B06D0FB681B68002B02D0BB68F4
:10129000002B06D1104B114A40F21511104804F0F2
:1012A000EDF900237B610DE07B695A1C7A61BA6815
:1012B00013441946F868FFF767FF0346002B01D176
:1012C000002304E07A697B689A42EDD30123184633
:1012D0001837BD4680BD00BF50820008A0870008B7
:1012E000C081000880B483B000AF78604FF06043E5
:1012F000D3F8803E03F00103002B13D04FF060437E
:10130000D3F8003E03F00103002B0BD000E000BF38
:101310004FF060431B68002BF9D04FF060437A68B0
:10132000D2B21A707B6818460C37BD465DF8047B54
:101330007047000080B400AF0A4B1B68094A43F0B5
:10134000807313604FF06043D3F8003E4FF060426B
:1013500043F00103C2F8003E00BFBD465DF8047BC8
:10136000704700BFFCED00E080B586B000AFF860CC
:10137000B9607A6000237B6109E0BB685A1CBA60DF
:101380001B781846FFF7AEFF7B6901337B617A69F2
:101390007B689A42F1DB7B6818461837BD4680BDF2
:1013A00080B582B000AF786039607B68002B05D1D2
:1013B000094B0A4A11210A4804F060F97B683A682F
:1013C0001A607B6801221A717B6800225A7100BF83
:1013D0000837BD4680BD00BF74820008B48700088E
:1013E0008082000880B582B000AF78607B68002BF7
:1013F00005D1094B094A1921094804F03FF97B68D6
:1014000000221A717B6800225A717B6800221A60E0
:1014100000BF0837BD4680BD74820008C887000839
:101420008082000880B483B000AF78607B681B794D
:10143000002B0CD07B681B68002B05D07B681B68D9
:101440005A1E7B681A6002E07B6801225A710123F0
:1014500018460C37BD465DF8047B704780B483B0F6
:1014600000AF78607B685B7918460C37BD465DF845
:10147000047B704780B500AF054800F057FE054873
:1014800000F002FC044801F0DAF800BF80BD00BFA4
:10149000000C0020DC0A00201C0D002080B500AFED
:1014A000114B124A1A60104B4FF4E1325A600E4B46
:1014B00000229A600C4B0022DA600B4B00221A616A
:1014C000094B0C225A61084B00229A61064B0022FC
:1014D000DA61054803F0D0F90346002B01D001F092
:1014E00003FA00BF80BD00BF980A002000440040FE
:1014F00080B500AFFFF7D2FF4FF400710B48FFF744
:1015000063FD03460A4AC2F808344FF400710848E4
:10151000FFF75AFD0346064AC2F800320122054988
:10152000054803F03BFA0123184680BD180400204B
:101530001002002014040020980A002080B500AF9B
:10154000044BD3F800321846FFF7A2FD0346DBB286
:10155000184680BD1002002080B582B000AF7860D0
:101560000B46FB70064BD3F80032FA7879681846C0
:10157000FFF780FE034618460837BD4680BD00BF12
:101580001002002080B500AF044BD3F8003218469B
:10159000FFF75EFD0123184680BD00BF100200204A
:1015A00080B584B000AF78600B46FB70134BD3F866
:1015B0000834FA7879681846FFF71CFE0346002BBA
:1015C00017D10F4B93F83D30DBB2202B0FD10B4BD3
:1015D000D3F8083407F10F0211461846FFF7D4FD7F
:1015E00007F10F0301221946054803F092F9012380
:1015F00000E0002318461037BD4680BD10020020D1
:10160000980A002080B584B000AF78607B681B68C2
:10161000124A93421DD1124BD3F808341846FFF7F3
:1016200037FD0346FB81FB89002B12D0FB89632B1E
:1016300028BF6323FB810A4BD3F80834FA89094990
:101640001846FFF717FEFB891A460649064803F0BD
:1016500060F900BF1037BD4680BD00BF00440040A8
:10166000100200201C060020980A002080B582B0DD
:1016700000AF78607B681B680E4A934215D1012247
:101680000D490E4803F08AF90D4BD3F800320122C0
:1016900009491846FFF7AEFD0346002B05D0084B5D
:1016A000D3F800321846FFF7D3FC00BF0837BD4619
:1016B00080BD00BF0044004014040020980A0020B0
:1016C0001002002080B582B000AF7860786800F02A
:1016D00019F800BF0837BD4680BD80B483B000AFA5
:1016E00078600B46FB707B68FA781A707B68002282
:1016F0001A717B6800225A7100BF0C37BD465DF835
:10170000047B704780B582B000AF786001217868B3
:10171000FFF7E3FF00BF0837BD4680BD80B584B04A
:1017200000AF7860FFF70AFF0346032B38D907F1B3
:101730000F0301211846FFF70FFF1C4B1A78FB7BA4
:101740009A4201D000232CE007F10F030121184633
:10175000FFF702FF154B5A78FB7B9A4201D000231A
:101760001FE007F10F0301211846FFF7F5FE0F4BAD
:101770009A78FB7B9A4201D0002312E007F10F0315
:1017800001211846FFF7E8FE084BDA78FB7B9A4206
:1017900001D0002305E07B6801221A71012300E0DB
:1017A000002318461037BD4680BD00BFD88700080B
:1017B00080B584B000AF78600B46FB70FB78FB739C
:1017C000FB78002B09D07B681B79012B03D178684B
:1017D00000F011F801E00023FB73FB7B83F00103B1
:1017E000DBB2002B02D07868FFF798FFFB7B18462E
:1017F0001037BD4680BD80B582B000AF7860022151
:101800007868FFF76AFF786800F004F800BF0837CF
:10181000BD4680BD80B582B000AF78607B6808337C
:101820001E211846FFF7BCFD00BF0837BD4680BD2E
:1018300080B582B000AF78607B6808331846FFF748
:10184000D1FD00BF0837BD4680BD80B582B000AF76
:101850007860FFF773FE0346032B14D97B682033AF
:1018600004211846FFF778FE7B682033184600F005
:1018700041FD0346002B03D07B6802221A7102E06F
:101880007B6803221A7100BF0837BD4680BD000087
:1018900080B584B000AF78600B46FB70FB78FB73BB
:1018A000FB78002B36D07B681B79022B0ED1786831
:1018B000FFF7BEFF7B685B8C002B03D0786800F0DD
:1018C00039F827E0786800F0C1F823E07B68083336
:1018D0001846FFF7C3FD0346002B03D17B681B7935
:1018E000032B15D17B6808331846FFF7B7FD034675
:1018F000002B01D0FFF746FE0022AE210C4800F07D
:10190000E1FB7868FFF794FF7868FFF7FBFE01E0E2
:101910000023FB73FB7B83F00103DBB2002B02D0BF
:101920007868FFF792FFFB7B18461037BD4680BDF5
:10193000000C002080B582B000AF78600321786889
:10194000FFF7CBFE786800F004F800BF0837BD460B
:1019500080BD80B584B000AF78607B685B8CFB8114
:101960007B681033FA8911461846FFF719FD00BF4E
:101970001037BD4680BD80B582B000AF78607B680F
:1019800010331846FFF72EFD00BF0837BD4680BD57
:1019900080B584B000AF78607B685B8CFB73FFF729
:1019A000CDFD03461A46FB7B93420CD87B6804228C
:1019B0001A717B6803F124027B685B8CDBB21946E9
:1019C0001046FFF7C9FD00BF1037BD4680BD0000BF
:1019D00080B584B000AF78600B46FB70FB78FB737A
:1019E000FB78002B22D07B681B79042B06D178680A
:1019F000FFF7C1FF786800F029F817E07B68103323
:101A00001846FFF72BFD0346002B0DD07868FFF733
:101A1000B2FFFFF7B7FD0022AE210B4800F052FBEA
:101A20007868FFF76FFE01E00023FB73FB7B83F018
:101A30000103DBB2002B02D07868FFF7A9FFFB7B24
:101A400018461037BD4680BD000C002080B582B01E
:101A500000AF786004217868FFF73FFE786800F0F7
:101A600004F800BF0837BD4680BD80B582B000AF26
:101A700078607B68183305211846FFF791FC00BF9A
:101A80000837BD4680BD80B582B000AF78607B6806
:101A900018331846FFF7A6FC00BF0837BD4680BDC7
:101AA00080B588B000AF78600823FB77FFF746FD6C
:101AB00003461A46FB7F93422BD807F114030421F7
:101AC0001846FFF749FD07F1100304211846FFF7F8
:101AD00043FD7B685B8C0433BB610023FB607B6848
:101AE000203307F10C02B969184600F061FAFA6870
:101AF0007B699A4203D07B6807221A7109E03B692F
:101B0000064A934202D07B6806221A717B6805223E
:101B10001A7100BF2037BD4680BD00BF55BB55BB05
:101B200080B584B000AF78600B46FB70FB78FB7328
:101B3000FB78002B37D07B681B79052B0BD178689D
:101B4000FFF7A1FF0022AD211E4800F0BBFA786824
:101B500000F03AF827E07B6818331846FFF77EFC60
:101B60000346002B07D17B681B79072B03D07B68CA
:101B70001B79062B15D17868FFF785FF7B68183332
:101B80001846FFF76BFC0346002B01D0FFF7FAFC69
:101B90000022AE210B4800F095FA7868FFF7B2FDFD
:101BA00001E00023FB73FB7B83F00103DBB2002B1E
:101BB00002D07868FFF774FFFB7B18461037BD46EC
:101BC00080BD00BF000C002080B582B000AF7860FF
:101BD00005217868FFF781FD786800F004F800BF00
:101BE0000837BD4680BD80B483B000AF786000BFC9
:101BF0000C37BD465DF8047B704780B584B000AFFC
:101C000078600B46FB70FB78FB73FB78002B09D0E8
:101C10007B685B79012B03D17868FFF773FD01E0E6
:101C20000023FB73FB7B18461037BD4680BD80B593
:101C300082B000AF78607B6818331846FFF7D2FB9C
:101C40007B6808331846FFF7CDFB7B6810331846D6
:101C5000FFF7C8FB00BF0837BD4680BD80B582B026
:101C600000AF78607B6820334FF482720021184601
:101C700003F074FD7868FFF7DAFF7868FFF722FD5C
:101C800000BF0837BD4680BD80B584B000AF786026
:101C90007B680833FB600023BB6008E0F868FFF74F
:101CA000C1FBFB680833FB60BB680133BB60BB68EA
:101CB000022BF3D900BF00BF1037BD4680BD000026
:101CC00080B582B000AF78607B681B78013B042B45
:101CD00025D801A252F823F0ED1C0008F71C0008DB
:101CE000011D00080B1D0008151D00080121786862
:101CF000FFF75EFD14E001217868FFF7C9FD0FE0F2
:101D000001217868FFF764FE0AE001217868FFF797
:101D100007FF05E001217868FFF76FFF00E000BFD3
:101D200000BF0837BD4680BD80B582B000AF786087
:101D30007B6800221A717B6800225A717B68083325
:101D40001846FFF74FFB00BF0837BD4680BD80B582
:101D500082B000AF78600B46FB707B68FA781A702F
:101D60007868FFF7E1FF00BF0837BD4680BD80B54A
:101D700082B000AF786000F00DFA7B6814334FF446
:101D800082720021184603F0E9FC7868FFF7CCFF67
:101D9000786800F005F800BF0837BD4680BD000038
:101DA00080B582B000AF7860064804F0D3FB012113
:101DB0007868FFF7CCFF7B6800221A7400BF0837F1
:101DC000BD4680BDA082000880B582B000AF7860BB
:101DD00000F0F4F90346002B05D07B6801221A714C
:101DE000034804F0B7FB00BF0837BD4680BD00BF05
:101DF000D482000880B582B000AF78607B6812336F
:101E0000184600F03BFA00BF0837BD4680BD80B5DC
:101E100084B000AF78600B46FB70FB78FB73FB78F7
:101E2000002B0CD07B681B79012B06D17868FFF75B
:101E3000E1FF786800F012F801E00023FB73FB7B00
:101E400083F00103DBB2002B02D07868FFF7BCFF00
:101E5000FB7B18461037BD4680BD000080B582B0C0
:101E600000AF7860064804F075FB02217868FFF740
:101E70006EFF786800F006F800BF0837BD4680BDE9
:101E80000083000880B582B000AF78607B6893F86B
:101E90001831002B09D07B68083332211846FFF730
:101EA0007FFA084804F056FB05E07B6802221A71AD
:101EB000054804F04FFB786800F0A8F800BF083729
:101EC000BD4680BD308300086483000880B582B0C1
:101ED00000AF78607B6808331846FFF783FA00BFCD
:101EE0000837BD4680BD000080B584B000AF786083
:101EF0000B46FB70FB78FB73FB78002B4DD07B68A7
:101F00005B79012B0CBF01230023DAB27B681B79BC
:101F1000022B0CBF01230023DBB21343DBB2002BE7
:101F200006D07868FFF7D2FF7868FFF739FF34E012
:101F30007B685B79022B06D17868FFF7C7FF78686A
:101F4000FFF78CFF29E07B6808331846FFF786FA15
:101F50000346002B1FD07868FFF7B8FF114804F044
:101F6000F9FA7B681B7C19460F4804F06DFA7B6810
:101F70001B7C5A1CD1B27A681174012B07D902213B
:101F80000A4804F061FA7868FFF70AFF05E078680C
:101F9000FFF764FF01E00023FB73FB7B184610375B
:101FA000BD4680BD94830008C4830008E483000814
:101FB00080B487B000AFF860B9607A6000237B61BD
:101FC0007B681A687B699B00F9680B441B68534067
:101FD0003B6100237B610BE07B6901339B00FA6866
:101FE00013441B683A6953403B617B6901337B6151
:101FF000BB685A1E7B699A42EED87B683A691A60C0
:1020000000BF1C37BD465DF8047B704780B584B0C7
:1020100000AF78600023BB607B681433FB60042151
:102020002648FFF7BDFA0346002B01D1002341E00B
:10203000FB6807F1080204211846FFF7B9FFFB68A7
:1020400004211846FFF7ACFA0346002B01D1002308
:1020500030E0FB685B88002B17D0FB68181DFB681D
:102060005B88194607F108031A46FFF7A1FFFB68D2
:102070001A1DFB685B88DBB219461046FFF790FA21
:102080000346002B01D1002314E007F108030421CB
:102090001846FFF785FA0346002B01D1002309E01B
:1020A00004210748FFF77CFA0346002B01D10023E7
:1020B00000E0012318461037BD4680BDD8870008D0
:1020C000DC87000880B5C4B000AF3B1D186008462F
:1020D0001146FB1C02461A70BB1C0A461A7007F117
:1020E000080318464FF484731A46002103F036FBA8
:1020F00007F1080303221A7007F10803FA1C12788B
:102100009A7007F10803AA22DA7007F10803BA1CD3
:10211000127883F8062107F10803184600F05AF8F0
:102120000346184607F58877BD4680BD80B584B064
:1021300000AF78607B680833FB600023BB6008E079
:10214000F868FFF76FF9FB680833FB60BB68013381
:10215000BB60BB68002BF3D000BF00BF1037BD468B
:1021600080BD80B582B000AF78607B681B78012BA2
:1021700002D0022B05D009E001217868FFF747FE65
:1021800004E001217868FFF7AFFE00BF00BF083709
:10219000BD4680BD80B500AF4FF480610548FEF7B5
:1021A00013FF0346044A5360034B00221A6000BF2A
:1021B00080BD00BF880600208006002080B400AFEC
:1021C000034B1B681846BD465DF8047B704700BF93
:1021D0008006002080B584B000AF78607B689B8863
:1021E000DBB20433FB73214B5B681846FEF786FFB6
:1021F0000246FB7B01339A422FD91C4B5A687B68FD
:102200001B7819461046FEF797FF184B5A687B68F3
:1022100093F8063119461046FEF78EFF134B5868A7
:102220007B680233FA7B1946FEF7E4FF0F4B1B680D
:1022300001330E4A13600D4B1B6819460C4804F01D
:1022400003F90A4B5B681846FEF758FF0346194628
:10225000084804F0F9F8012303E0074804F0F4F813
:10226000002318461037BD4680BD00BF8006002001
:102270006C84000894840008C084000880B582B093
:1022800000AF7860194B1B68002B27D0174B5B6899
:102290007A6811461846FEF777FF144B5A687B6838
:1022A00003F5837319461046FEF76EFF0F4B58680F
:1022B0007B68023304221946FEF7DCFF0B4B58689B
:1022C0007B68991D7B689B881A46FEF7D3FF074BF6
:1022D0001B68013B054A1360012303E0044804F036
:1022E000B3F8002318460837BD4680BD800600209D
:1022F000E884000880B483B000AF78607B681B7806
:10230000002B03D07B681B78542B0FD97B681B787C
:10231000562B03D97B681B78AA2B07D97B681B78BF
:10232000AC2B0DD97B681B78FF2B09D07B685B88B1
:10233000FF2B05D87B685B78BB2B01D1012300E024
:10234000002318460C37BD465DF8047B704780B407
:1023500083B000AF78600B46FB707B68FA781A7721
:102360007B6800221A7000BF0C37BD465DF8047B05
:102370007047000080B582B000AF7860074804F075
:10238000E9F801217868FFF7E2FF7B682C331846F3
:1023900000F00CFA00BF0837BD4680BD1885000864
:1023A00080B582B000AF7860064804F0D3F802210F
:1023B0007868FFF7CCFF786800F006F800BF0837B0
:1023C000BD4680BD4485000880B582B000AF78600E
:1023D000124804F0BFF87B681A1D7B689B6A194697
:1023E0001046FEF7DDFF7B6803F114027B685B8C0F
:1023F00019461046FEF7D4FF7B6803F10C027B6898
:102400009B8C19461046FEF7CBFF7B682C33184691
:1024100000F0BEF900BF0837BD4680BD74850008D6
:1024200080B582B000AF786039603B685A687B68DD
:102430001A633B681A687B68DA627868FFF79AFF6C
:1024400000BF0837BD4680BD80B582B000AF786060
:1024500039603B681B781946786800F014F8034629
:10246000002B0BD07B6820330C223968184603F010
:1024700067F97B6801221A70012300E000231846E7
:102480000837BD4680BD80B582B000AF78600B468E
:10249000FB707B682C33FA781146184600F042F93D
:1024A000034618460837BD4680BD80B584B000AFEE
:1024B00078600123FB737B681B78012B03D178685C
:1024C000FFF76EFF01E00023FB73FB7B184610371C
:1024D000BD4680BD80B582B000AF78600D4804F085
:1024E00039F87B6804331846FEF77CFF7B681433A9
:1024F0001846FEF777FF7B680C331846FEF772FF2D
:102500007B682C33184600F051F900BF0837BD46F0
:1025100080BD00BFE885000880B582B000AF78605C
:102520007B6814331846FEF799FF0346002B17D03B
:102530007B682C33184600F02BF97B6803F10C0202
:102540007B689B8C19461046FEF72AFF7B6803F1D7
:1025500014027B685B8C19461046FEF721FF0CE0E5
:102560007B680C331846FEF779FF0346002B04D036
:102570007B682C33184600F019F900BF0837BD46B8
:1025800080BD80B584B000AF78600123FB737B68A9
:102590001B78012B06D17868FFF79CFF7868FFF75E
:1025A000FFFE27E07B681B78022B06D17868FFF7D7
:1025B00091FF7868FFF7DEFE1CE07B680433184665
:1025C000FEF74CFF0346002B12D07B689B6AB3F1E9
:1025D000FF3F06D17868FFF77DFF7868FFF7E0FEE0
:1025E00008E07868FFF776FF7868FFF7C3FE01E040
:1025F0000023FB73FB7B83F00103DBB2002B02D0D3
:102600007868FFF789FFFB7B18461037BD4680BD11
:1026100080B582B000AF78607B681B7F012B02D051
:10262000022B04D007E07868FFF73FFF03E07868EB
:10263000FFF7A7FF00BF00BF0837BD4680BD80B5CC
:1026400084B000AF78607B680433FB600023BB601C
:1026500008E0F868FEF7E6FEFB680833FB60BB683D
:102660000133BB60BB68022BF3D900BF00BF10373A
:10267000BD4680BD80B58AB000AF07F120030022BF
:102680001A605A603B1D00221A605A609A60DA6034
:102690001A615A619A61224B4FF080421A60204BB6
:1026A00054225A601E4B00229A601D4B6322DA604E
:1026B0001B4B00221A611A4B00229A61184801F044
:1026C00015FC0346002B01D000F00EF900233B62FD
:1026D00000237B6207F120031946114802F05EF8DF
:1026E0000346002B01D000F0FFF860237B6000233D
:1026F000BB600023FB6000237B613B1D0022194669
:10270000074801F057FD0346002B01D000F0ECF81C
:10271000034800F06FFA00BF2837BD4680BD00BFF8
:10272000500D002080B483B000AF78600B46FB7082
:10273000FB78642B24D87B685B68002B05D17B6811
:102740001B681B68FA785A6318E07B685B68042B87
:1027500005D17B681B681A68FB7893630EE07B6881
:102760005B68082B05D17B681B681A68FB78D3630C
:1027700004E07B681B681A68FB781364012300E09F
:10278000002318460C37BD465DF8047B70470000F7
:1027900080B582B000AF78600021034801F0F6FBFD
:1027A00000BF0837BD4680BD500D002080B582B007
:1027B00000AF78600021034801F098FC00BF0837A3
:1027C000BD4680BD500D002080B500AF0A4803F023
:1027D000C1FE0A4803F0BEFE094803F0BBFE0948EB
:1027E00003F0B8FE0849094803F02EFE024803F042
:1027F000B1FE00BF80BD00BF3086000858860008CB
:102800007886000894860008AC860008B886000820
:1028100080B500AF00F0A8FB0246194B1B68D31A25
:102820001E2B2AD900F0A0FB0346154A1360154B56
:102830001B781A46144B1B681344144A82FB03127C
:102840005111DA178A1A642101FB02F29A1AD2B2E4
:102850000C4B1A700B4B1B78622B03D8094B1B785F
:10286000002B04D1084B1B685B42074A1360054BE1
:102870001B7819460648FFF706FE00BF80BD00BF63
:10288000880A002008000020140000201F85EB515A
:102890001C0D002080B500AF00F004F9FFF794FF95
:1028A0000C48FFF764FA0C48FFF7D8F90B490C48BD
:1028B000FFF7B6FD0B490A48FFF7C6FD0548FFF7CD
:1028C00050FC0548FFF7FCF90548FFF7A1FEFFF7AC
:1028D0009FFFF3E7000C0020DC0A0020000000202E
:1028E0001C0D00200800002080B400AF72B600BFAD
:1028F000FEE7000080B594B000AF07F1200330225E
:102900000021184602F02AFF07F10C0300221A608A
:102910005A609A60DA601A610023BB60284B1B6C16
:10292000274A43F080531364254B1B6C03F08053FC
:10293000BB60BB6800237B60224B1B68214A43F4C9
:10294000404313601F4B1B6803F440437B607B686C
:1029500002233B620123FB6210233B630223BB6320
:102960000023FB6310233B644FF4A8737B640423B0
:10297000BB640423FB6407F12003184600F042FE09
:102980000346002B01D0FFF7AFFF0F23FB600223AC
:102990003B6100237B614FF48053BB610023FB61EB
:1029A00007F10C030221184601F0A4F80346002B9E
:1029B00001D0FFF799FF00BF5037BD4680BD00BF73
:1029C000003802400070004080B58AB000AF07F1C7
:1029D000140300221A605A609A60DA601A610023B8
:1029E0003B612D4B1B6B2C4A43F0040313632A4BB2
:1029F0001B6B03F004033B613B690023FB60264B28
:102A00001B6B254A43F080031363234B1B6B03F0BE
:102A10008003FB60FB680023BB601F4B1B6B1E4ADF
:102A200043F0010313631C4B1B6B03F00103BB60FA
:102A3000BB6800237B60184B1B6B174A43F00203F3
:102A40001363154B1B6B03F002037B607B68002252
:102A50002021124800F0BCFD4FF400537B614FF47D
:102A60000413BB610023FB6107F1140319460C48F2
:102A700000F02AFC20237B610123BB610023FB6162
:102A800000233B6207F114031946044800F01CFCC4
:102A900000BF2837BD4680BD00380240000002401C
:102AA0000008024080B500AF00F0F8F9FFF722FF00
:102AB000FFF78AFFFFF7DEFDFEF71AFDFEF73AFC8F
:102AC00000BF80BD80B582B000AF00237B60104B9B
:102AD0005B6C0F4A43F4804353640D4B5B6C03F40F
:102AE00080437B607B6800233B60094B1B6C084A7A
:102AF00043F080531364064B1B6C03F080533B6020
:102B00003B68072000F00CFB00BF0837BD4680BDC6
:102B10000038024080B58AB000AF786007F1140336
:102B200000221A605A609A60DA601A617B681B683A
:102B30001D4A934233D100233B611C4B1B6C1B4A43
:102B400043F400331364194B1B6C03F400333B61F3
:102B50003B690023FB60154B1B6B144A43F00103D8
:102B60001363124B1B6B03F00103FB60FB680C2328
:102B70007B610223BB610023FB6103233B620723CC
:102B80007B6207F114031946094800F09DFB0022FF
:102B90000021262000F0CFFA262000F0E8FA00BF3E
:102BA0002837BD4680BD00BF0044004000380240C9
:102BB0000000024080B485B000AF78607B681B687D
:102BC000B3F1804F0DD10023FB60094B1B6C084A09
:102BD00043F001031364064B1B6C03F00103FB601D
:102BE000FB6800BF1437BD465DF8047B704700BF2B
:102BF0000038024080B588B000AF786007F10C0360
:102C000000221A605A609A60DA601A617B681B6859
:102C1000B3F1804F1DD10023BB60104B1B6B0F4ADB
:102C200043F0010313630D4B1B6B03F00103BB6007
:102C3000BB682023FB6002233B6100237B610023F0
:102C4000BB610123FB6107F10C031946044800F046
:102C50003BFB00BF2037BD4680BD00BF00380240AF
:102C60000000024080B400AFFEE780B400AFFEE792
:102C700080B400AFFEE780B400AFFEE780B400AFE1
:102C8000FEE780B400AF00BFBD465DF8047B70472F
:102C900080B400AF00BFBD465DF8047B704780B4D0
:102CA00000AF00BFBD465DF8047B704780B500AF44
:102CB000FEF7E0FB00F044F900BF80BD80B500AF37
:102CC000024801F09BFE00BF80BD00BF980A0020B3
:102CD00080B400AF01231846BD465DF8047B704701
:102CE00080B582B000AF7860396002F0E5FC034641
:102CF00016221A604FF0FF3318460837BD4680BDD4
:102D000080B582B000AF78604FF0FF317868FFF790
:102D1000E7FFFEE780B586B000AFF860B9607A6083
:102D200000237B610AE0AFF300800146BB685A1CB8
:102D3000BA60CAB21A707B6901337B617A697B68B9
:102D40009A42F0DB7B6818461837BD4680BD80B4D8
:102D500083B000AF78604FF0FF3318460C37BD46A4
:102D60005DF8047B704780B483B000AF7860396051
:102D70003B684FF400525A60002318460C37BD469A
:102D80005DF8047B704780B483B000AF78600123A6
:102D900018460C37BD465DF8047B704780B485B09B
:102DA00000AFF860B9607A60002318461437BD465A
:102DB0005DF8047B7047000080B586B000AF786096
:102DC000144A154BD31A7B617B693B61134B1B681B
:102DD000002B02D1114B124A1A60104B1A687B6803
:102DE00013443A699A4207D202F066FC03460C2269
:102DF0001A604FF0FF3309E0084B1B68FB60074B7C
:102E00001A687B681344054A1360FB681846183734
:102E1000BD4680BD00000220000400008C0A002096
:102E2000B00D002080B400AF064BD3F88830054ABF
:102E300043F47003C2F8883000BFBD465DF8047BE0
:102E4000704700BF00ED00E0DFF834D00D480E49B8
:102E50000E4A002302E0D458C4500433C4188C42F4
:102E6000F9D30B4A0B4C002301E013600432A24259
:102E7000FBD3FFF7D7FF02F037FCFFF70BFD7047DE
:102E80000000022000000020F4010020F08B000868
:102E9000F4010020AC0D0020FEE7000080B500AF7B
:102EA0000E4B1B680D4A43F4007313600B4B1B68F9
:102EB0000A4A43F480631360084B1B68074A43F4D3
:102EC00080731360032000F02BF9002000F008F855
:102ED000FFF7F8FD0023184680BD00BF003C02400C
:102EE00080B582B000AF7860124B1A68124B1B7825
:102EF00019464FF47A73B3FBF1F3B2FBF3F31846C0
:102F000000F043F90346002B01D001230EE07B685B
:102F10000F2B0AD8002279684FF0FF3000F00BF930
:102F2000064A7B681360002300E001231846083737
:102F3000BD4680BD18000020200000201C0000209D
:102F400080B400AF064B1B781A46064B1B6813442F
:102F5000044A136000BFBD465DF8047B704700BFA4
:102F600020000020980D002080B400AF034B1B68A8
:102F70001846BD465DF8047B704700BF980D0020E1
:102F800080B485B000AF78607B6803F00703FB6016
:102F90000C4BDB68BB60BA684FF6FF031340BB60A5
:102FA000FB681A02BB68134343F0BF6343F400336A
:102FB000BB60044ABB68D36000BF1437BD465DF8F0
:102FC000047B704700ED00E080B400AF044BDB6889
:102FD0001B0A03F007031846BD465DF8047B7047E3
:102FE00000ED00E080B483B000AF0346FB7197F9B9
:102FF0000730002B0BDBFB7903F01F02074997F921
:1030000007305B09012000FA02F241F8232000BFDB
:103010000C37BD465DF8047B704700BF00E100E05F
:1030200080B483B000AF03463960FB7197F9073075
:10303000002B0ADB3B68DAB20C4997F90730120122
:10304000D2B20B4483F800230AE03B68DAB20849A5
:10305000FB7903F00F03043B1201D2B20B441A7642
:1030600000BF0C37BD465DF8047B704700E100E00F
:1030700000ED00E080B489B000AFF860B9607A601C
:10308000FB6803F00703FB61FB69C3F10703042B33
:1030900028BF0423BB61FB690433062B02D9FB69FB
:1030A000033B00E000237B614FF0FF32BB6902FA73
:1030B00003F3DA43BB681A407B699A404FF0FF3153
:1030C0007B6901FA03F3D9437B680B40134318462D
:1030D0002437BD465DF8047B7047000080B582B0A0
:1030E00000AF78607B68013BB3F1807F01D301239F
:1030F0000FE00A4A7B68013B53600F214FF0FF301D
:10310000FFF78EFF054B00229A60044B07221A60DE
:10311000002318460837BD4680BD00BF10E000E020
:1031200080B582B000AF78607868FFF729FF00BFF4
:103130000837BD4680BD80B586B000AF0346B96094
:103140007A60FB7300237B61FFF73EFF78617A684A
:10315000B9687869FFF78EFF024697F90F3011467C
:103160001846FFF75DFF00BF1837BD4680BD80B52C
:1031700082B000AF0346FB7197F907301846FFF79E
:1031800031FF00BF0837BD4680BD80B582B000AFBB
:1031900078607868FFF7A2FF034618460837BD46F7
:1031A00080BD80B584B000AF78607B689B6DFB60AC
:1031B000FFF7DAFEB8607B6893F83530DBB2022B9C
:1031C00008D07B6880225A657B68002283F834200F
:1031D000012352E07B681B681A687B681B6822F039
:1031E00016021A607B681B685A697B681B6822F0AC
:1031F00080025A617B681B6C002B03D17B689B6C3F
:10320000002B07D07B681B681A687B681B6822F05C
:1032100008021A607B681B681A687B681B6822F0CA
:1032200001021A6013E0FFF79FFE0246BB68D31A43
:10323000052B0CD97B6820225A657B68032283F812
:1032400035207B68002283F83420032315E07B6857
:103250001B681B6803F00103002BE4D17B68DB6D66
:103260003F229A40FB689A607B68012283F83520F0
:103270007B68002283F83420002318461037BD46AF
:1032800080BD80B483B000AF78607B6893F8353040
:10329000DBB2022B04D07B6880225A6501230CE04C
:1032A0007B68052283F835207B681B681A687B6879
:1032B0001B6822F001021A60002318460C37BD4635
:1032C0005DF8047B7047000080B489B000AF78607F
:1032D000396000237B6100233B610023BB61002335
:1032E000FB6159E10122FB6902FA03F37B613B6850
:1032F0001B687A6913403B613A697B699A4240F0E6
:1033000048813B685B6803F00303012B05D03B68F1
:103310005B6803F00303022B30D17B689B68BB61C1
:10332000FB695B00032202FA03F3DB43BA69134033
:10333000BB613B68DA68FB695B0002FA03F3BA69B8
:103340001343BB617B68BA699A607B685B68BB6149
:103350000122FB6902FA03F3DB43BA691340BB6144
:103360003B685B681B0903F00102FB6902FA03F387
:10337000BA691343BB617B68BA695A603B685B6892
:1033800003F00303032B17D07B68DB68BB61FB6989
:103390005B00032202FA03F3DB43BA691340BB610B
:1033A0003B689A68FB695B0002FA03F3BA6913434E
:1033B000BB617B68BA69DA603B685B6803F0030352
:1033C000022B23D1FB69DA087B68083253F82230DC
:1033D000BB61FB6903F007039B000F2202FA03F3B2
:1033E000DB43BA691340BB613B681A69FB6903F0B0
:1033F00007039B0002FA03F3BA691343BB61FB693D
:10340000DA087B680832B96943F822107B681B68C8
:10341000BB61FB695B00032202FA03F3DB43BA6979
:103420001340BB613B685B6803F00302FB695B0010
:1034300002FA03F3BA691343BB617B68BA691A6085
:103440003B685B6803F44033002B00F0A28000234C
:10345000FB60574B5B6C564A43F480435364544BB8
:103460005B6C03F48043FB60FB68524AFB699B087A
:10347000023352F82330BB61FB6903F003039B0066
:103480000F2202FA03F3DB43BA691340BB617B6886
:10349000494A934219D07B68484A934213D07B68CB
:1034A000474A93420DD07B68464A934207D07B68D7
:1034B000454A934201D1042308E0072306E0032391
:1034C00004E0022302E0012300E00023FA6902F095
:1034D000030292009340BA691343BB613549FB690B
:1034E0009B080233BA6941F82320384B1B68BB6143
:1034F0003B69DB43BA691340BB613B685B6803F41B
:103500008033002B03D0BA693B691343BB612F4A58
:10351000BB6913602D4B5B68BB613B69DB43BA69D8
:103520001340BB613B685B6803F40033002B03D09E
:10353000BA693B691343BB61244ABB695360234B9F
:103540009B68BB613B69DB43BA691340BB613B6865
:103550005B6803F48013002B03D0BA693B69134303
:10356000BB611A4ABB699360184BDB68BB613B695E
:10357000DB43BA691340BB613B685B6803F400132B
:10358000002B03D0BA693B691343BB610F4ABB6987
:10359000D360FB690133FB61FB690F2B7FF6A2AEA1
:1035A00000BF00BF2437BD465DF8047B704700BFF5
:1035B0000038024000380140000002400004024090
:1035C00000080240000C024000100240003C014094
:1035D00080B483B000AF78600B467B8013467B706D
:1035E0007B78002B03D07A887B689A6103E07B8824
:1035F0001A047B689A6100BF0C37BD465DF8047BF6
:103600007047000080B586B000AF78607B68002B03
:1036100001D1012364E27B681B6803F00103002BE6
:1036200075D0A34B9B6803F00C03042B0CD0A04B6C
:103630009B6803F00C03082B12D19D4B5B6803F4CD
:103640008003B3F5800F0BD1994B1B6803F4003353
:10365000002B5BD07B685B68002B57D101233FE2D6
:103660007B685B68B3F5803F06D1914B1B68904A3D
:1036700043F4803313601DE07B685B68B3F5A02FD3
:103680000CD18B4B1B688A4A43F480231360884B10
:103690001B68874A43F4803313600BE0844B1B683C
:1036A000834A23F480331360814B1B68804A23F4E0
:1036B000802313607B685B68002B13D0FFF754FCFA
:1036C000386108E0FFF750FC02463B69D31A642BCF
:1036D00001D9032304E2764B1B6803F40033002B6B
:1036E000F0D014E0FFF740FC386108E0FFF73CFC45
:1036F00002463B69D31A642B01D90323F0E16C4BDA
:103700001B6803F40033002BF0D100E000BF7B689E
:103710001B6803F00203002B63D0654B9B6803F02A
:103720000C03002B0BD0624B9B6803F00C03082B9F
:103730001CD15F4B5B6803F48003002B16D15C4BFC
:103740001B6803F00203002B05D07B68DB68012BAC
:1037500001D00123C4E1564B1B6823F0F8027B68BB
:103760001B69DB00524913430B603AE07B68DB685E
:10377000002B20D04F4B01221A60FFF7F5FB386178
:1037800008E0FFF7F1FB02463B69D31A022B01D98F
:103790000323A5E1464B1B6803F00203002BF0D086
:1037A000434B1B6823F0F8027B681B69DB00404930
:1037B00013430B6015E03F4B00221A60FFF7D4FB68
:1037C000386108E0FFF7D0FB02463B69D31A022BB1
:1037D00001D9032384E1364B1B6803F00203002B5D
:1037E000F0D17B681B6803F00803002B30D07B68A6
:1037F0005B69002B16D0304B01221A60FFF7B4FB37
:10380000386108E0FFF7B0FB02463B69D31A022B90
:1038100001D9032364E1264B5B6F03F00203002B05
:10382000F0D015E0244B00221A60FFF79DFB3861B1
:1038300008E0FFF799FB02463B69D31A022B01D936
:1038400003234DE11A4B5B6F03F00203002BF0D111
:103850007B681B6803F00403002B00F0A0800023AA
:10386000FB75134B1B6C03F08053002B0FD100230F
:10387000BB600F4B1B6C0E4A43F0805313640C4B20
:103880001B6C03F08053BB60BB680123FB750B4BC3
:103890001B6803F48073002B21D1084B1B68074A77
:1038A00043F480731360FFF75FFB386111E000BFE2
:1038B0000038024000004742800E4742007000403E
:1038C000FFF752FB02463B69D31A022B01D90323AF
:1038D00006E1854B1B6803F48073002BF0D07B68F6
:1038E0009B68012B06D1814B1B6F804A43F001037B
:1038F00013671CE07B689B68052B0CD17B4B1B6F0F
:103900007A4A43F004031367784B1B6F774A43F0FE
:10391000010313670BE0754B1B6F744A23F001031F
:103920001367724B1B6F714A23F0040313677B68A4
:103930009B68002B15D0FFF717FB38610AE0FFF7F3
:1039400013FB02463B69D31A41F28832934201D9F4
:103950000323C5E0654B1B6F03F00203002BEED081
:1039600014E0FFF701FB38610AE0FFF7FDFA0246B9
:103970003B69D31A41F28832934201D90323AFE065
:103980005A4B1B6F03F00203002BEED1FB7D012B82
:1039900005D1564B1B6C554A23F0805313647B684A
:1039A0009B69002B00F09B80504B9B6803F00C033D
:1039B000082B5CD07B689B69022B41D14C4B0022C9
:1039C0001A60FFF7D1FA386108E0FFF7CDFA024636
:1039D0003B69D31A022B01D9032381E0434B1B68B7
:1039E00003F00073002BF0D17B68DA697B681B6AF7
:1039F0001A437B685B6A9B011A437B689B6A5B087E
:103A0000013B1B041A437B68DB6A1B0637491343DF
:103A10004B60374B01221A60FFF7A6FA386108E0C5
:103A2000FFF7A2FA02463B69D31A022B01D90323FE
:103A300056E02E4B1B6803F00073002BF0D04EE0D5
:103A40002B4B00221A60FFF78FFA386108E0FFF76E
:103A50008BFA02463B69D31A022B01D903233FE0BC
:103A6000224B1B6803F00073002BF0D137E07B681A
:103A70009B69012B01D1012332E01C4B5B68FB6089
:103A80007B689B69012B28D0FB6803F480027B686C
:103A9000DB699A4221D1FB6803F03F027B681B6A15
:103AA0009A421AD1FA6847F6C07313407A68526A8C
:103AB0009201934211D1FB6803F440327B689B6A08
:103AC0005B08013B1B049A4207D1FB6803F070625C
:103AD0007B68DB6A1B069A4201D0012300E00023C9
:103AE00018461837BD4680BD0070004000380240BF
:103AF0006000474280B584B000AF786039607B6871
:103B0000002B01D10123CCE0684B1B6803F00703B5
:103B10003A689A420CD9654B3A68D2B21A70634B34
:103B20001B6803F007033A689A4201D00123B8E00A
:103B30007B681B6803F00203002B20D07B681B68A6
:103B400003F00403002B05D0594B9B68584A43F4FB
:103B5000E05393607B681B6803F00803002B05D0DB
:103B6000534B9B68524A43F460439360504B9B68AD
:103B700023F0F0027B689B684D4913438B607B68A0
:103B80001B6803F00103002B44D07B685B68012BAA
:103B900007D1474B1B6803F40033002B19D10123D5
:103BA0007FE07B685B68022B03D07B685B68032B3C
:103BB00007D13F4B1B6803F00073002B09D1012391
:103BC0006FE03B4B1B6803F00203002B01D1012384
:103BD00067E0374B9B6823F003027B685B683449DE
:103BE00013438B60FFF7C0F9F8600AE0FFF7BCF9F8
:103BF0000246FB68D31A41F28832934201D903236B
:103C00004FE02B4B9B6803F00C027B685B689B00CA
:103C10009A42EBD1254B1B6803F007033A689A429E
:103C20000CD2224B3A68D2B21A70204B1B6803F0B8
:103C300007033A689A4201D0012332E07B681B688F
:103C400003F00403002B08D0194B9B6823F4E052C7
:103C50007B68DB68164913438B607B681B6803F045
:103C60000803002B09D0124B9B6823F460427B6849
:103C70001B69DB000E4913438B6000F021F80246FC
:103C80000B4B9B681B0903F00F030A49CB5C22FA1C
:103C900003F3094A1360094B1B681846FFF720F924
:103CA000002318461037BD4680BD00BF003C0240CF
:103CB00000380240E0870008180000201C000020A7
:103CC0002DE9B04384B000AF00237B600023FB608C
:103CD00000233B600023BB60674B9B6803F00C0331
:103CE000082B0DD0082B00F2BD80002B02D0042B36
:103CF00003D0B7E0614BBB60B7E0614BBB60B4E0A1
:103D00005D4B5B6803F03F037B605B4B5B6803F4D8
:103D10008003002B4DD0584B5B689B091A464FF02F
:103D2000000340F2FF104FF0000102EA000803EA2E
:103D30000109404649464FF000024FF000034B0195
:103D400043EAD063420110461946B0EB080061EB2C
:103D500009014FF000024FF000038B0143EA90632A
:103D60008201121A63EB01034FF000004FF00001D3
:103D7000D90041EA5271D00002460B4612EB08020C
:103D800043EB09034FF000004FF00001590241EAF4
:103D9000D251500202460B46104619467B681A461D
:103DA0004FF00003FCF708FF02460B461346FB608A
:103DB0004AE0314B5B689B091A464FF0000340F222
:103DC000FF104FF0000102EA000403EA010520465B
:103DD00029464FF000024FF000034B0143EAD06345
:103DE000420110461946001B61EB05014FF000022D
:103DF0004FF000038B0143EA90638201121A63EBD8
:103E000001034FF000004FF00001D90041EA527168
:103E1000D00002460B46121945EB03034FF0000099
:103E20004FF00001990241EA9251900202460B467E
:103E3000104619467B681A464FF00003FCF7BCFE9B
:103E400002460B461346FB600B4B5B681B0C03F0F2
:103E5000030301335B003B60FA683B68B2FBF3F39A
:103E6000BB6002E0054BBB6000BFBB681846103763
:103E7000BD46BDE8B08300BF003802400024F40016
:103E800000127A0080B400AF034B1B681846BD4691
:103E90005DF8047B704700BF1800002080B500AFBC
:103EA000FFF7F0FF0246054B9B689B0A03F00703F0
:103EB0000349CB5C22FA03F3184680BD0038024068
:103EC000F087000880B500AFFFF7DCFF0246054B26
:103ED0009B685B0B03F007030349CB5C22FA03F3F7
:103EE000184680BD00380240F087000880B582B0D7
:103EF00000AF78607B68002B01D1012341E07B6833
:103F000093F83D30DBB2002B06D17B68002283F8AA
:103F10003C207868FEF74EFE7B68022283F83D2045
:103F20007B681A687B6804331946104600F004FA6F
:103F30007B68012283F846207B68012283F83E20BB
:103F40007B68012283F83F207B68012283F84020B0
:103F50007B68012283F841207B68012283F842209C
:103F60007B68012283F843207B68012283F8442088
:103F70007B68012283F845207B68012283F83D207D
:103F8000002318460837BD4680BD000080B584B0C8
:103F900000AF786039603B68002B09D17B6893F8EB
:103FA0003E30DBB2012B14BF01230023DBB222E041
:103FB0003B68042B09D17B6893F83F30DBB2012BBF
:103FC00014BF01230023DBB215E03B68082B09D1A5
:103FD0007B6893F84030DBB2012B14BF0123002330
:103FE000DBB208E07B6893F84130DBB2012B14BFF1
:103FF00001230023DBB2002B01D0012368E03B68E2
:10400000002B04D17B68022283F83E2013E03B683A
:10401000042B04D17B68022283F83F200BE03B682D
:10402000082B04D17B68022283F8402003E07B68E0
:10403000022283F841207B681B68012239681846F8
:1040400000F086FB7B681B68234A934207D17B689C
:104050001B685A6C7B681B6842F400425A647B6898
:104060001B681D4A934218D07B681B68B3F1804FD0
:1040700013D07B681B68194A93420ED07B681B687B
:10408000174A934209D07B681B68164A934204D0B2
:104090007B681B68144A934211D17B681B689B683C
:1040A00003F00703FB60FB68062B10D07B681B68DE
:1040B0001A687B681B6842F001021A6007E07B689F
:1040C0001B681A687B681B6842F001021A600023B3
:1040D00018461037BD4680BD000001400004004076
:1040E00000080040000C00400040014080B582B054
:1040F00000AF786039607B681B6800223968184619
:1041000000F026FB7B681B68294A934217D17B6825
:104110001B681A6A41F211131340002B0FD17B6800
:104120001B681A6A40F244431340002B07D17B6896
:104130001B685A6C7B681B6822F400425A647B68D7
:104140001B681A6A41F211131340002B0FD17B68D0
:104150001B681A6A40F244431340002B07D17B6866
:104160001B681A687B681B6822F001021A603B68B2
:10417000002B04D17B68012283F83E2013E03B68CA
:10418000042B04D17B68012283F83F200BE03B68BD
:10419000082B04D17B68012283F8402003E07B6870
:1041A000012283F84120002318460837BD4680BD10
:1041B0000000014080B586B000AFF860B9607A6059
:1041C0000023FB75FB6893F83C30012B01D10223DF
:1041D000AEE0FB68012283F83C207B680C2B00F2E8
:1041E0009F8001A252F823F01D42000821430008DD
:1041F00021430008214300085D42000821430008D4
:1042000021430008214300089F4200082143000881
:104210002143000821430008DF420008FB681B68B7
:10422000B968184600F008F9FB681B689A69FB68D2
:104230001B6842F008029A61FB681B689A69FB6878
:104240001B6822F004029A61FB681B689969BB68CD
:104250001A69FB681B680A439A6164E0FB681B6883
:10426000B968184600F04EF9FB681B689A69FB684C
:104270001B6842F400629A61FB681B689A69FB68DC
:104280001B6822F480629A61FB681B689969BB68AD
:104290001B691A02FB681B680A439A6143E0FB68CA
:1042A0001B68B968184600F099F9FB681B68DA6961
:1042B000FB681B6842F00802DA61FB681B68DA6978
:1042C000FB681B6822F00402DA61FB681B68D9698D
:1042D000BB681A69FB681B680A43DA6123E0FB6864
:1042E0001B68B968184600F0E3F9FB681B68DA69D7
:1042F000FB681B6842F40062DA61FB681B68DA69DC
:10430000FB681B6822F48062DA61FB681B68D9696C
:10431000BB681B691A02FB681B680A43DA6102E08A
:104320000123FB7500BFFB68002283F83C20FB7D66
:1043300018461837BD4680BD80B485B000AF7860A0
:1043400039607B681B68FB607B68344A93420FD0FE
:104350007B68B3F1804F0BD07B68314A934207D022
:104360007B68304A934203D07B682F4A934208D13E
:10437000FB6823F07003FB603B685B68FA681343DB
:10438000FB607B68254A93421BD07B68B3F1804F6A
:1043900017D07B68224A934213D07B68214A93420C
:1043A0000FD07B68204A93420BD07B681F4A934210
:1043B00007D07B681E4A934203D07B681D4A934214
:1043C00008D1FB6823F44073FB603B68DB68FA6844
:1043D0001343FB60FB6823F080023B685B69134377
:1043E000FB607B68FA681A603B689A687B68DA62EF
:1043F0003B681A687B689A627B68084A934203D1DB
:104400003B681A697B681A637B6801225A6100BFA6
:104410001437BD465DF8047B704700BF00000140C3
:104420000004004000080040000C00400040014033
:10443000004401400048014080B487B000AF78607C
:1044400039607B681B6A23F001027B681A627B6813
:104450001B6A7B617B685B683B617B689B69FB6077
:10446000FB6823F07003FB60FB6823F00303FB6031
:104470003B681B68FA681343FB607B6923F0020307
:104480007B613B689B687A6913437B617B681C4A4C
:1044900093420CD17B6923F008037B613B68DB68A6
:1044A0007A6913437B617B6923F004037B617B683A
:1044B000134A934211D13B6923F480733B613B69FA
:1044C00023F400733B613B685B693A6913433B61CA
:1044D0003B689B693A6913433B617B683A695A6060
:1044E0007B68FA689A613B685A687B685A637B68A4
:1044F0007A691A6200BF1C37BD465DF8047B7047BD
:104500000000014080B487B000AF786039607B68FC
:104510001B6A23F010027B681A627B681B6A7B614E
:104520007B685B683B617B689B69FB60FB6823F48D
:10453000E043FB60FB6823F44073FB603B681B684F
:104540001B02FA681343FB607B6923F020037B6145
:104550003B689B681B017A6913437B617B681E4A39
:1045600093420DD17B6923F080037B613B68DB685C
:104570001B017A6913437B617B6923F040037B61F4
:104580007B68154A934213D13B6923F480633B61F6
:104590003B6923F400633B613B685B699B003A69BC
:1045A00013433B613B689B699B003A6913433B6142
:1045B0007B683A695A607B68FA689A613B685A6816
:1045C0007B689A637B687A691A6200BF1C37BD46B4
:1045D0005DF8047B704700BF0000014080B487B0E5
:1045E00000AF786039607B681B6A23F480727B6857
:1045F0001A627B681B6A7B617B685B683B617B68D6
:10460000DB69FB60FB6823F07003FB60FB6823F051
:104610000303FB603B681B68FA681343FB607B691C
:1046200023F400737B613B689B681B027A69134328
:104630007B617B681D4A93420DD17B6923F4006343
:104640007B613B68DB681B027A6913437B617B6992
:1046500023F480637B617B68144A934213D13B69E6
:1046600023F480533B613B6923F400533B613B6877
:104670005B691B013A6913433B613B689B691B0102
:104680003A6913433B617B683A695A607B68FA6810
:10469000DA613B685A687B68DA637B687A691A6218
:1046A00000BF1C37BD465DF8047B70470000014029
:1046B00080B487B000AF786039607B681B6A23F4F0
:1046C00080527B681A627B681B6A3B617B685B680F
:1046D0007B617B68DB69FB60FB6823F4E043FB6084
:1046E000FB6823F44073FB603B681B681B02FA689D
:1046F0001343FB603B6923F400533B613B689B68B9
:104700001B033A6913433B617B68104A934209D10A
:104710007B6923F480437B613B685B699B017A6919
:1047200013437B617B687A695A607B68FA68DA6157
:104730003B685A687B681A647B683A691A6200BFF2
:104740001C37BD465DF8047B704700BF0000014088
:1047500080B487B000AFF860B9607A60BB6803F0DE
:104760001F03012202FA03F37B61FB681A6A7B696B
:10477000DB431A40FB681A62FB681A6ABB6803F0E5
:104780001F03796801FA03F31A43FB681A6200BF3A
:104790001C37BD465DF8047B7047000080B485B0CF
:1047A00000AF786039607B6893F83C30012B01D111
:1047B000022350E07B68012283F83C207B680222C0
:1047C00083F83D207B681B685B68FB607B681B6827
:1047D0009B68BB60FB6823F07003FB603B681B6851
:1047E000FA681343FB607B681B68FA685A607B6851
:1047F0001B681C4A934218D07B681B68B3F1804F3A
:1048000013D07B681B68184A93420ED07B681B68E4
:10481000164A934209D07B681B68154A934204D01C
:104820007B681B68134A93420CD1BB6823F080035A
:10483000BB603B685B68BA681343BB607B681B68FE
:10484000BA689A607B68012283F83D207B68002269
:1048500083F83C20002318461437BD465DF8047BDE
:10486000704700BF00000140000400400008004005
:10487000000C00400040014080B582B000AF78607D
:104880007B68002B01D101233FE07B6893F83D302A
:10489000DBB2002B06D17B68002283F83C207868CD
:1048A000FEF738F97B68242283F83D207B681B687B
:1048B000DA687B681B6822F40052DA60786800F0DE
:1048C00015FD7B681B681A697B681B6822F490429F
:1048D0001A617B681B685A697B681B6822F02A0290
:1048E0005A617B681B68DA687B681B6842F4005277
:1048F000DA607B6800221A647B68202283F83D20FE
:104900007B68202283F83E20002318460837BD46E6
:1049100080BD80B485B000AFF860B9601346FB80FD
:10492000FB6893F83D30DBB2202B30D1BB68002B05
:1049300002D0FB88002B01D1012329E0FB6893F80A
:104940003C30012B01D1022322E0FB68012283F8D5
:104950003C20FB68BA681A62FB68FA889A84FB6894
:10496000FA88DA84FB6800221A64FB68212283F843
:104970003D20FB68002283F83C20FB681B68DA6856
:10498000FB681B6842F08002DA60002300E002232B
:1049900018461437BD465DF8047B704780B584B077
:1049A00000AFF860B9601346FB80FB6893F83E30B7
:1049B000DBB2202B1DD1BB68002B02D0FB88002B63
:1049C00001D1012316E0FB6893F83C30012B01D1A3
:1049D00002230FE0FB68012283F83C20FB680022E1
:1049E0001A63FB881A46B968F86800F0ABFA034608
:1049F00000E0022318461037BD4680BD80B5BAB02E
:104A000000AF78607B681B681B68C7F8E4307B6880
:104A10001B68DB68C7F8E0307B681B685B69C7F818
:104A2000DC300023C7F8D8300023C7F8D430D7F8DB
:104A3000E43003F00F03C7F8D830D7F8D830002B94
:104A40000FD1D7F8E43003F02003002B09D0D7F8BA
:104A5000E03003F02003002B03D0786800F08BFBDC
:104A600056E2D7F8D830002B00F0DE80D7F8DC30E3
:104A700003F00103002B06D1D7F8E03003F4907364
:104A8000002B00F0D180D7F8E43003F00103002BB5
:104A90000BD0D7F8E03003F48073002B05D07B688F
:104AA0001B6C43F001027B681A64D7F8E43003F012
:104AB0000403002B0BD0D7F8DC3003F00103002BEC
:104AC00005D07B681B6C43F002027B681A64D7F840
:104AD000E43003F00203002B0BD0D7F8DC3003F0F6
:104AE0000103002B05D07B681B6C43F004027B683C
:104AF0001A64D7F8E43003F00803002B11D0D7F87C
:104B0000E03003F02003002B05D1D7F8DC3003F0B0
:104B10000103002B05D07B681B6C43F008027B6807
:104B20001A647B681B6C002B00F0ED81D7F8E43031
:104B300003F02003002B08D0D7F8E03003F0200367
:104B4000002B02D0786800F016FB7B681B685B695D
:104B500003F04003402B0CBF01230023DBB2C7F856
:104B6000D4307B681B6C03F00803002B03D1D7F80B
:104B7000D430002B4FD0786800F01EFA7B681B6899
:104B80005B6903F04003402B41D17B681B68143301
:104B9000C7F89C30D7F89C3053E8003FC7F89830EE
:104BA000D7F8983023F04003C7F8D0307B681B68F3
:104BB0001433D7F8D020C7F8A820C7F8A430D7F806
:104BC000A410D7F8A82041E80023C7F8A030D7F8F0
:104BD000A030002BD9D17B689B6B002B13D07B6856
:104BE0009B6B7D4A1A657B689B6B1846FEF749FBF9
:104BF0000346002B16D07B689B6B1B6D7A68926B0B
:104C0000104698470EE0786800F086F90AE0786868
:104C100000F082F906E0786800F07EF97B680022F7
:104C20001A6470E100BF6EE17B681B6B012B40F0E2
:104C30004A81D7F8E43003F01003002B00F04381E1
:104C4000D7F8E03003F01003002B00F03C81002384
:104C5000BB607B681B681B68BB607B681B685B680C
:104C6000BB60BB687B681B685B6903F04003402B3B
:104C700040F0B4807B689B6B1B685B68A7F8BE3014
:104C8000B7F8BE30002B00F040817B689B8DB7F8F1
:104C9000BE209A4280F039817B68B7F8BE20DA8561
:104CA0007B689B6BDB69B3F5807F00F088807B6855
:104CB0001B680C33C7F88830D7F8883053E8003FBA
:104CC000C7F88430D7F8843023F48073C7F8B8303D
:104CD0007B681B680C33D7F8B820C7F89420C7F856
:104CE0009030D7F89010D7F8942041E80023C7F807
:104CF0008C30D7F88C30002BD9D17B681B681433EB
:104D00007B677B6F53E8003F3B673B6F23F00103FA
:104D1000C7F8B4307B681B681433D7F8B420C7F8E1
:104D20008020FB67F96FD7F8802041E80023BB673C
:104D3000BB6F002BE1D17B681B6814333B663B6E75
:104D400053E8003FFB65FB6D23F04003C7F8B0302C
:104D50007B681B681433D7F8B020FA66BB66B96E5F
:104D6000FA6E41E800237B667B6E002BE3D17B6803
:104D7000202283F83E207B6800221A637B681B6830
:104D80000C33FB64FB6C53E8003FBB64BB6C23F04B
:104D90001003C7F8AC307B681B680C33D7F8AC2025
:104DA000BA657B65796DBA6D41E800233B653B6D63
:104DB000002BE3D17B689B6B1846FEF7F2F97B680A
:104DC0009A8D7B68DB8D9BB2D31A9BB219467868AB
:104DD00000F0ACF899E000BF7F5000087B689A8D26
:104DE0007B68DB8D9BB2D31AA7F8CE307B68DB8D56
:104DF0009BB2002B00F08B80B7F8CE30002B00F078
:104E000086807B681B680C33BB63BB6B53E8003F39
:104E10007B637B6B23F49073C7F8C8307B681B6897
:104E20000C33D7F8C8207A643B64396C7A6C41E85B
:104E30000023FB63FB6B002BE3D17B681B681433FF
:104E40007B627B6A53E8003F3B623B6A23F00103CD
:104E5000C7F8C4307B681B681433D7F8C4203A63A2
:104E6000FB62F96A3A6B41E80023BB62BB6A002B24
:104E7000E3D17B68202283F83E207B6800221A63FE
:104E80007B681B680C333B613B6953E8003FFB6068
:104E9000FB6823F01003C7F8C0307B681B680C3335
:104EA000D7F8C020FA61BB61B969FA6941E800230B
:104EB0007B617B69002BE3D1B7F8CE301946786867
:104EC00000F034F823E0D7F8E43003F08003002B3F
:104ED00009D0D7F8E03003F08003002B03D07868C6
:104EE00000F0E1F814E0D7F8E43003F04003002BC1
:104EF0000ED0D7F8E03003F04003002B08D07868DC
:104F000000F021F904E000BF02E000BF00E000BFB4
:104F1000E837BD4680BD00BF80B483B000AF786085
:104F200000BF0C37BD465DF8047B704780B483B08A
:104F300000AF78600B467B8000BF0C37BD465DF844
:104F4000047B704780B485B000AFF860B960134649
:104F5000FB80FB68BA689A62FB68FA889A85FB68EE
:104F6000FA88DA85FB6800221A64FB68222283F83B
:104F70003E20FB68002283F83C20FB681B68DA684F
:104F8000FB681B6842F48072DA60FB681B685A6930
:104F9000FB681B6842F001025A61FB681B68DA6813
:104FA000FB681B6842F02002DA60002318461437C1
:104FB000BD465DF8047B704780B495B000AF786063
:104FC0007B681B680C337B637B6B53E8003F3B6360
:104FD0003B6B23F49073FB647B681B680C33FA6CA7
:104FE0003A64FB63F96B3A6C41E80023BB63BB6B2B
:104FF000002BE5D17B681B6814333B623B6A53E8A6
:10500000003FFB61FB6923F00103BB647B681B6805
:105010001433BA6CFA62BB62B96AFA6A41E80023D7
:105020007B627B6A002BE5D17B681B6B012B19D15E
:105030007B681B680C33FB60FB6853E8003FBB6078
:10504000BB6823F010037B647B681B680C337A6CAD
:10505000BA617B617969BA6941E800233B613B69C8
:10506000002BE5D17B68202283F83E207B6800225C
:105070001A6300BF5437BD465DF8047B704780B5A6
:1050800084B000AF78607B689B6BFB60FB6800229C
:10509000DA85FB680022DA84F868FFF73DFF00BF7D
:1050A0001037BD4680BD80B485B000AF78607B68A6
:1050B00093F83D30DBB2212B3ED17B689B68B3F582
:1050C000805F14D17B681B69002B10D17B681B6A41
:1050D000FB60FB681B881A467B681B68C2F30802EA
:1050E0005A607B681B6A9A1C7B681A6208E07B68BE
:1050F0001B6A591C7A6811621A787B681B685A60AF
:105100007B68DB8C9BB2013B9BB27A681946D184E9
:10511000002B0FD17B681B68DA687B681B6822F064
:105120008002DA607B681B68DA687B681B6842F083
:105130004002DA60002300E0022318461437BD461F
:105140005DF8047B704780B582B000AF78607B6803
:105150001B68DA687B681B6822F04002DA607B68B3
:10516000202283F83D207868FCF74CFA002318468B
:105170000837BD4680BD80B58CB000AF78607B68D5
:1051800093F83E30DBB2222B40F0AB807B689B680B
:10519000B3F5805F17D17B681B69002B13D1002307
:1051A000FB627B689B6ABB627B681B685B689BB227
:1051B000C3F308039AB2BB6A1A807B689B6A9A1C85
:1051C0007B689A6226E07B689B6AFB620023BB6275
:1051D0007B689B68B3F5805F07D07B689B68002B7A
:1051E0000AD17B681B69002B06D17B681B685B6852
:1051F000DAB2FB6A1A7008E07B681B685B68DBB296
:1052000003F07F03DAB2FB6A1A707B689B6A5A1C50
:105210007B689A627B68DB8D9BB2013B9BB27A68AC
:105220001946D185002B5AD17B681B68DA687B68E8
:105230001B6822F02002DA607B681B68DA687B68F2
:105240001B6822F48072DA607B681B685A697B688D
:105250001B6822F001025A617B68202283F83E20FD
:105260007B681B6B012B35D17B6800221A637B683E
:105270001B680C337B617B6953E8003F3B613B69F2
:1052800023F010037B627B681B680C337A6A3A62F6
:10529000FB61F9693A6A41E80023BB61BB69002BF5
:1052A000E5D17B681B681B6803F01003102B0AD143
:1052B0000023FB607B681B681B68FB607B681B68C6
:1052C0005B68FB60FB687B689B8D19467868FFF71D
:1052D0002DFE02E07868FCF7C9F9002302E0002304
:1052E00000E0022318463037BD4680BD2DE9F04F5F
:1052F0009FB000AFF866FB6E1B681B6923F440503B
:10530000FB6ED968FB6E1A6840EA01031361FB6EFD
:105310009A68FB6E1B691A43FB6E5B691A43FB6E4E
:10532000DB6913433B67FB6E1B68DB6823F41641A4
:1053300021F00C01FB6E1A683B6F0B43D360FB6ED0
:105340001B685B6923F44070FB6E9969FB6E1A68F9
:1053500040EA01035361FB6E1A68C54B9A4204D0C0
:10536000FB6E1A68C34B9A4203D1FEF7ABFD786718
:1053700002E0FEF793FD7867FB6EDB69B3F5004F43
:1053800040F0B6807B6F1C464FF0000522462B464E
:10539000911839645B417B64D7E91023121945EBFE
:1053A00003034FF000004FF00001D90041EA5271B1
:1053B000D00002460B46111939666B417B66FB6EC5
:1053C0005B681A464FF000039118B9635B41FB63B9
:1053D000D7E90E23D7E91801FBF7EEFB02460B468F
:1053E000A54BA3FB02235B091E017B6F1C464FF0FC
:1053F000000522462B46911839635B417B63D7E950
:105400000C23121945EB03034FF000004FF000018D
:10541000D90041EA5271D00002460B461119B96514
:105420006B41FB65FB6E5B681A464FF000039118F9
:10543000B9625B41FB62D7E90A23D7E91601FBF7A2
:10544000BBFB02460B468C4BA3FB02135B0964219A
:1054500001FB03F3D31ADB003233874AA2FB032399
:105460005B095B0003F4F8731E447B6F18464FF032
:10547000000102460B4694183C625B417B62D7E90F
:105480000823121841EB03034FF000044FF000050E
:10549000DD0045EA5275D40022462B4614183C65BF
:1054A0004B417B65FB6E5B681A464FF00003911819
:1054B000B9615B41FB61D7E90623D7E91401FBF72A
:1054C0007BFB02460B466C4BA3FB02135B0964217A
:1054D00001FB03F3D31ADB003233674AA2FB032339
:1054E0005B0903F00702FB6E1B6832449A60B9E067
:1054F0007B6F1C464FF0000522462B469118396100
:105500005B417B61D7E90423121945EB03034FF09C
:1055100000004FF00001D90041EA5271D00002466C
:105520000B4612EB040843EB0509FB6E5B6818465B
:105530004FF000014FF000024FF000038B0043EAF0
:105540009073820040464946FBF736FB02460B4605
:10555000494BA3FB02235B091E017B6F18464FF0EA
:10556000000102460B469418BC605B41FB60D7E922
:105570000223121841EB03034FF000044FF0000523
:10558000DD0045EA5275D40022462B461418BC644F
:105590004B41FB64FB6E5B6818464FF000014FF017
:1055A00000024FF000038B0043EA90738200D7E9BA
:1055B0001201FBF701FB02460B462F4BA3FB021324
:1055C0005B09642101FB03F3D31A1B0132332A4A1E
:1055D000A2FB03235B0903F0F0031E447B6F184614
:1055E0004FF0000102460B4694183C605B417B6023
:1055F000D7E90023121841EB03034FF000044FF0EA
:105600000005DD0045EA5275D40022462B4612EB18
:10561000000A43EB010BFB6E5B6818464FF000017C
:105620004FF000024FF000038B0043EA90738200BA
:1056300050465946FBF7C0FA02460B460E4BA3FBF9
:1056400002135B09642101FB03F3D31A1B013233FC
:10565000094AA2FB03235B0903F00F02FB6E1B68E0
:1056600032449A6000BF7C37BD46BDE8F08F00BF72
:1056700000100140001401401F85EB511FB5144676
:105680001A46094B1B680546D8684CB1074B009178
:10569000CDE9013406492B4600F014F801F032F848
:1056A000044B1C46F3E700BF24000020F8870008E5
:1056B0000588000833880008014B1868704700BF50
:1056C000240000200EB403B5014603AB054853F88F
:1056D000042B0068019300F01DF902B05DF804EBA3
:1056E00003B070472400002070B50D4D0D4C641BB5
:1056F000A4100026A64209D10B4D0C4C02F04EFD21
:10570000641BA4100026A64205D170BD55F8043BC9
:1057100098470136EEE755F8043B98470136F2E723
:10572000E88B0008E88B0008E88B0008EC8B000889
:10573000024B0146186800F069B800BF2400002041
:105740000A44914200F1FF3300D1704710B511F8BF
:10575000014B03F8014F9142F9D110BD02440346B9
:10576000934200D1704703F8011BF9E737B50029D0
:1057700048D051F8043C0190002BA1F10404B8BFBB
:10578000E41802F061F8204A01981368154633B90D
:105790006360146003B0BDE8304002F05BB8A34220
:1057A0000BD921686218934204BF1A685B68636072
:1057B00004BF521822602C60ECE71A465B680BB1FC
:1057C000A342FAD911685518A5420BD12468214487
:1057D0005418A3421160DDD11C685B6853602144FA
:1057E0001160D7E702D90C230360D3E7256861195C
:1057F0008B4204BF19685B68636004BF491921606C
:105800005460C7E703B030BD900A0020F8B5CD1C46
:1058100025F0030508350C2D38BF0C25002D064654
:1058200001DBA94203D90C2333600020F8BD02F04C
:105830000BF821490A6814469CB9204F3B6823B9EC
:105840002146304600F08EFE38602946304600F092
:1058500089FE431C23D10C233360304601F0FAFF4C
:10586000E3E723685B1B17D40B2B03D923601C448D
:10587000256004E06368A2420CBF0B6053603046B1
:1058800001F0E8FF04F10B00231D20F00700C21A0D
:10589000CCD01B1AA350C9E722466468CCE7C41CCD
:1058A00024F00304A042E3D0211A304600F05AFE4F
:1058B0000130DDD1CFE700BF900A0020940A00201C
:1058C0009368013B002B10B4936008DA9469A342FB
:1058D00001DB0A2903D15DF8044B00F053BE1368C5
:1058E000581C1060197008465DF8044B7047F8B5F5
:1058F00006460F461446D518AC4201D1002007E0F9
:1059000014F8011B3A463046FFF7DAFF431CF3D187
:10591000F8BD00002DE9F04F0D469DB014469846A5
:10592000064618B183690BB901F084FE894B9D428C
:105930001BD175686B6ED90705D4AB899A0502D463
:10594000A86D01F01AFFAB891B0701D52B69EBB9D4
:105950002946304600F068FEC0B16B6EDC070ED5FC
:105960004FF0FF301DB0BDE8F08F7B4B9D4201D161
:10597000B568DFE7794B9D4208BFF568DAE7AB8988
:105980009805EDD4A86D01F0F9FEE9E7002309932D
:1059900020238DF82930CDF80C803023DFF8C0812A
:1059A0008DF82A304FF0010923469A4613F8012B4F
:1059B0000AB1252AF9D1BAEB040B0BD05B4622467B
:1059C00029463046FFF793FF013000F0AA80099A7C
:1059D0005A4409929AF80030002B00F0A28000236C
:1059E0004FF0FF32CDE905230AF1010A0493079332
:1059F0008DF853301A935446052214F8011B584869
:105A0000FAF7F6FB049AD8B9D10644BF20238DF8E3
:105A10005330130744BF2B238DF853309AF80030CE
:105A20002A2B15D0079A544600204FF00A0C214625
:105A300011F8013B303B092B4ED9B0B1079214E06D
:105A4000A0EB080309FA03F313430493A246D2E739
:105A5000039B191D1B680391002BBBBF5B4242F0E7
:105A6000020207930793B8BF049223782E2B0CD120
:105A700063782A2B35D1039B1A1D1B680392002BD8
:105A8000B8BF4FF0FF3302340593DFF8E4A021786C
:105A900003225046FAF7ACFB40B14023A0EB0A00CA
:105AA00003FA00F0049B03430134049314F8011B30
:105AB0002C488DF828100622FAF79AFB00283FD0D0
:105AC000294B1BBB039B073323F0070308330393C6
:105AD000099B3B44099367E70CFB02320C4601200B
